:020000040800F2
:100000001020002079230008CD230008D123000808
:10001000D5230008D9230008DD23000800000000D4
:10002000000000000000000000000000F1160008C1
:10003000E523000800000000991600088F11000851
:10004000F1230008F5230008F9230008FD23000828
:100050000124000805240008092400080D240008D4
:100060001124000815240008192400081D24000884
:100070002124000825240008292400082D24000834
:100080003124000835240008392400083D240008E4
:100090004124000845240008492400084D24000894
:1000A0005124000855240008592400085D24000844
:1000B0006124000865240008692400086D240008F4
:1000C0007124000875240008792400087D240008A4
:1000D0008124000885240008892400088D24000854
:1000E0009124000895240008992400089D24000804
:1000F000A1240008A5240008A9240008AD240008B4
:10010000B1240008B5240008B9240008BD24000863
:10011000C1240008C5240008C9240008CD24000813
:10012000D1240008D5240008D9240008DD240008C3
:10013000E1240008E5240008E9240008ED24000873
:10014000F1240008F5240008F9240008FD24000823
:100150000125000805250008092500080D250008CF
:100160001125000815250008192500081D2500087F
:100170002125000825250008292500082D2500082F
:1001800031250008352500082DE9F04F85B0040021
:100190000D0016001F00DDF83880DDF83C90B6B287
:1001A000B00000F004FE8346BBF1000F0DD05820D4
:1001B00000F0FDFD8246BAF1000F02D0CAF830B05F
:1001C00005E0584600F058FE01E000208246BAF1F2
:1001D000000F14D000200390CDF808A0CDF80490B3
:1001E000CDF800803B00B6B232002900200000F0BC
:1001F0000DF8504600F078F80120049002E05FF01E
:10020000FF300490049805B0BDE8F08F2DE9F94F58
:1002100083B00C0015000E9E0F9FDDF84080A800F3
:100220000190A5200090D8F830B0009A0199584666
:1002300000F066FED8F8300010EB8500001F814604
:100240005FEAD9095FEAC90919F00700002807D059
:10025000502080F31188BFF34F8FBFF36F8FFEE7FD
:1002600000208246BAF10A0F0CD21AF804001AEBE9
:10027000080181F834001AF80400002802D01AF1AD
:10028000010AEFE7002088F83D00052E01D3042085
:100290000600C8F82C60C8F848600020C8F84C0078
:1002A00018F1040000F06EFE18F1180000F06AFE6C
:1002B000C8F81080D6F10500C8F81800C8F82480E6
:1002C0000020C8F85000002088F85400049A0399D0
:1002D000484600F097FEC8F80000002F01D0C7F88C
:1002E000008005B0BDE8F08F10B5040000F019FFE4
:1002F000DFF840050068401CDFF838150860DFF8BB
:100300003805006800280AD1DFF82C050460DFF802
:1003100024050068012811D100F082FB0EE0DFF80F
:100320001C050068002809D1E06ADFF80C1509688F
:10033000C96A884202D3DFF800050460DFF840058F
:100340000068401CDFF838150860DFF834050068E5
:100350002064DFF8300500680121E26A914008431B
:10036000DFF820150860211DDFF81C05E26A142360
:1003700003FB020000F009FE00F0F0FEDFF8BC0411
:10038000006800280FD0DFF8B0040068C06AE16A96
:10039000884208D25FF08050DFF848160860BFF34B
:1003A0004F8FBFF36F8F10BD38B5040000F0B9FE5A
:1003B000002C03D1DFF88004056800E02500281D2B
:1003C00000F00CFE002812D1DFF8BC04E96A142208
:1003D00002FB01000068002809D1DFF8A8040068CA
:1003E0000121EA6A91408843DFF898140860A86AFE
:1003F000002803D015F1180000F0F0FDDFF88004AC
:100400000068401CDFF878140860DFF82C040068EE
:1004100085420CD1291DDFF8000500F0B6FDDFF89C
:10042000FC040068401CDFF8F41408600BE0DFF8FF
:1004300004040068401EDFF8FC130860280000F088
:100440004FFB00F056FB00F089FEDFF8F003006878
:1004500000281AD0DFF8E0030068854215D1DFF8E4
:10046000C0040068002807D0502080F31188BFF333
:100470004F8FBFF36F8FFEE75FF08050DFF864159A
:100480000860BFF34F8FBFF36F8F31BD38B50400E5
:100490000025002C15D0DFF888040068002807D05C
:1004A000502080F31188BFF34F8FBFF36F8FFEE7AB
:1004B00000F04CF80021200000F016FC00F04EF88F
:1004C0000500002D08D15FF08050DFF81815086096
:1004D000BFF34F8FBFF36F8F31BD1CB5DFF8E80757
:1004E00001900020009000238222DFF8E4170FF231
:1004F000FD40FFF749FE0400012C02D100F0AEFEE2
:100500000400012C16D1502080F31188BFF34F8FC7
:10051000BFF36F8F5FF0FF30DFF8B817086001207E
:10052000DFF8181308600020DFF82014086000F0DE
:1005300092FD0AE014F1010F07D1502080F31188D9
:10054000BFF34F8FBFF36F8FFEE713BDDFF8D0030C
:100550000068401CDFF8C8130860704770B50024BD
:100560000025DFF8BC030068002807D1502080F385
:100570001188BFF34F8FBFF36F8FFEE700F0D1FDFF
:10058000DFF89C030068401EDFF894130860DFF872
:100590009003006800285CD1DFF89802006800280A
:1005A00057D0DFF82807006800282AD0DFF81C079A
:1005B000C068C068040014F1180000F00FFD201D91
:1005C00000F00CFDDFF8BC0200680121E26A9140F6
:1005D0000843DFF8B0120860211DDFF8AC02E26AC0
:1005E000142303FB020000F0D0FCE06ADFF848129D
:1005F0000968C96A8842D4D30120DFF8E016086090
:10060000CFE7002C01D000F074FADFF8CC060668C2
:10061000002E0ED000F026F8002803D00120DFF8CD
:10062000BC160860761E002EF4D10020DFF8A81654
:100630000860DFF8A806006800280AD0012005003D
:100640005FF08050DFF89C130860BFF34F8FBFF35B
:100650006F8F00F083FD280070BDDFF8F01209688D
:10066000080070472DE9F0410026DFF8B402006869
:1006700000287CD1DFF8D4020068471CDFF8CC02E8
:100680000760002F24D1DFF890030068006800287D
:1006900007D0502080F31188BFF34F8FBFF36F8FC7
:1006A000FEE7DFF8740300688046DFF87003006837
:1006B000DFF864130860DFF86403C0F80080DFF837
:1006C00020060068401CDFF81816086000F011FAD8
:1006D000DFF80006006887423CD3DFF83C0300687F
:1006E0000068002805D15FF0FF30DFF8E8150860EA
:1006F00030E0DFF824030068C068C0680400606868
:100700000500AF4203D2DFF8CC05056022E0201DD2
:1007100000F064FCA06A002803D014F1180000F077
:100720005DFC584800680121E26A91400843554940
:100730000860211D5448E26A142303FB020000F004
:1007400024FCE06A3C490968C96A8842C5D3012093
:100750000600C2E74C4838490968C96A142202FBFE
:1007600001000068022809D30120060006E0DFF836
:1007700068050068401CDFF860150860DFF85C055C
:100780000068002801D0012006003000BDE8F0819B
:1007900063480068002804D00120DFF84015086095
:1007A0002DE00020DFF83415086036490968B1FAF9
:1007B00081F1D1F11F0108003349142202FB00111D
:1007C0000968002907D1502181F31188BFF34F8FA9
:1007D000BFF36F8FFEE72C4A142303FB00221100A6
:1007E0004A6852684A604A6811F108039A4202D185
:1007F0004A6852684A604968C9680F4A1160704780
:1008000038B504000D00002C07D1502080F311886A
:10081000BFF34F8FBFF36F8FFEE7DFF8500500681F
:1008200010F11801200000F0BCFB0121280000F0AD
:100830005BFA31BD684D0120584D0120744D0120F7
:1008400070B504000D001600002C07D1502080F375
:100850001188BFF34F8FBFF36F8FFEE7DFF80C05F2
:10086000006810F11801200000F08FFB002E02D06C
:100870005FF0FF3005003100280000F035FA70BD50
:10088000844D0120704D0120104C012070B50400F2
:10089000E068C0680500002D07D1502080F3118862
:1008A000BFF34F8FBFF36F8FFEE715F1180000F015
:1008B00095FB1B480068002816D1281D00F08EFB10
:1008C000DFF8AC0400680121EA6A91400843DFF8D0
:1008D000A0140860291DDFF89C04EA6A142303FBB6
:1008E000020000F052FB05E015F11801DFF8DC030F
:1008F00000F04BFBDFF874040068C06AE96A8842C4
:1009000006D2012006000120DFF8D813086001E0BC
:1009100000200600300070BDF04C0120644D012025
:10092000904D0120002807D1502181F31188BFF399
:100930004F8FBFF36F8FFEE7DFF8A41309680160E4
:10094000DFF8341409684160704700006C4D0120E5
:10095000F8B504000D00002C07D1502080F3118859
:10096000BFF34F8FBFF36F8FFEE7002D07D15020ED
:1009700080F31188BFF34F8FBFF36F8FFEE700F056
:10098000D0FBDFF8F4030768286810F1010F02D1EB
:10099000002006001DE0DFF8480300682168884257
:1009A00005D06068874202D30120060011E060682C
:1009B000381A296888420AD22868C01B616808185A
:1009C00028602000FFF7AEFF0020060001E00120B4
:1009D000060000F0C3FB3000F2BD0120DFF8041375
:1009E0000860704704ED00E07047000010B5040097
:1009F00000F043F8DFF87C030068022808D35FF0BA
:100A00008050DFF878130860BFF34F8FBFF36F8F0C
:100A1000FFF7EAFFECE700005C4D0120604D01208C
:100A200010B500200400052C08D2DFF8480314217B
:100A300001FB040000F097FA641CF4E7DFF84003C0
:100A400000F091FADFF83C0300F08DFADFF87C0249
:100A500000F089FADFF8300300F085FADFF82C03A4
:100A600000F081FADFF81803DFF824130860DFF8DC
:100A70001403DFF82013086010BD38B5DFF8180341
:100A8000006800282BD0FFF761FDDFF8FC0200684A
:100A9000002801D1012400E00024FFF75FFD002CB5
:100AA000ECD100F03EFBDFF8E002C068C068050052
:100AB000281D00F093FADFF8E4020068401EDFF81A
:100AC000DC120860DFF8D0020068401EDFF8C812B0
:100AD000086000F043FB280000F002F8CEE731BDCB
:100AE00010B50400206B00F0C7F9200000F0C4F935
:100AF00010BDDFF89C1209680968002904D15FF075
:100B0000FF31744A116008E0DFF884120968C9688F
:100B1000C968080041686F4A11607047DFF88012A9
:100B20000968002902D10121080009E0DFF87412E8
:100B30000968002902D10221080001E00021080013
:100B4000704738B504002500002C4FD0E86ADFF864
:100B50001C120968C96A884248D2A869002806D4CC
:100B6000DFF808020068C06AD0F10500A861686972
:100B7000DFF80012EA6A142303FB0211884230D125
:100B8000281D00F02BFA002812D1DFF8E801E96AED
:100B9000142202FB01000068002809D1DFF8D0010F
:100BA00000680121EA6A91408843DFF8C4110860B7
:100BB000DFF8B8010068C06AE862DFF8B4010068D5
:100BC0000121EA6A91400843DFF8A4110860291D59
:100BD000DFF8A001EA6A142303FB020000F0D5F954
:100BE00004E0DFF888010068C06AE86231BD70B5D2
:100BF000040025000026002C54D0DFF870010068A6
:100C0000854207D0502080F31188BFF34F8FBFF388
:100C10006F8FFEE7E86C002807D1502080F3118821
:100C2000BFF34F8FBFF36F8FFEE7E86C401EE864A1
:100C3000E86AA96C884235D0E86C002832D1281DBA
:100C400000F0CCF9002812D1DFF82801E96A14225B
:100C500002FB01000068002809D1DFF814010068D8
:100C60000121EA6A91408843DFF804110860A86C0A
:100C7000E862E86AD0F10500A861DFF8F4000068D6
:100C80000121EA6A91400843DFF8E4100860291D59
:100C9000DFF8E000EA6A142303FB020000F075F9B4
:100CA00001200600300070BDDFF8C0000068002899
:100CB00005D0DFF8B8000068C16C491CC164DFF8DA
:100CC000AC000068704700008C4D0120DC4C012016
:100CD000B0230008884D0120784D01207C4D012073
:100CE000804D01207C4D0120F8B504000D00224804
:100CF00007681E480068001D00F070F900280BD13D
:100D00001A4800681A4909680122C06A12FA00F0FC
:100D100031EA00001649086014F1010F08D1002DD6
:100D200006D012480068011D184800F02EF91BE09B
:100D3000E01906000D4800684660BE4207D20B4825
:100D40000068011D1348006800F02BF90CE007480B
:100D50000068011D0E48006800F023F91248006881
:100D6000864201D210480660F1BD0000584D0120B6
:100D7000704D0120104C01206C4D012004ED00E06D
:100D8000B44C0120C84C0120F04C0120044D01203E
:100D90005C4D0120604D0120644D0120684D012013
:100DA000744D0120904D0120884D012070472DE9A0
:100DB000F04104005FF00008FFF7C8FB49480068F5
:100DC000002804D100F079F8012046490860002C81
:100DD0000BD04548008814FA80F414F0070F04D0B3
:100DE00014F1080014F00701441A002C3AD03F48CF
:100DF000844237D23E4806003D48006805006868D6
:100E0000A04205D22868002802D02E002D68F6E7FF
:100E10003848854226D0306833490988081880460A
:100E2000286830603048008840006968091B8842A3
:100E300012D2601907006868001B78606C607A68DD
:100E400011002B4A1000026852688A4201D20068E1
:100E5000F9E702683A600760274800686968401A45
:100E600025490860FFF77AFBB8F1000F01D1FFF7C1
:100E70009DFF4046BDE8F081F8B504002600002C37
:100E80001AD019480088361A3500FFF75FFB6968E9
:100E90000F001749080001684968B94201D200688B
:100EA000F9E7016829600560134800686968081857
:100EB00011490860FFF752FBF1BD104AD208D20079
:100EC00011000B4A11600022094B5A60074A094B76
:100ED0005A600022074B1A600800044A4260054A23
:100EE00002607047504D01204A1F0008F82B010096
:100EF000404D0120484D0120000000201820002016
:100F000062F30F2262F31F42401810F0030308D06F
:100F1000C91A1FD3DB0748BF00F8012D28BF20F8EE
:100F2000022D130030B414461546103928BF20E9AD
:100F30003C00FAD8490728BF20E90C0048BF40F818
:100F4000042D890028BF20F8022D48BF00F8012D8C
:100F500030BC7047C91818BF00F8012DCB0728BF57
:100F600000F8012D704710F1080141605FF0FF317A
:100F7000816010F10801C16010F1080101610021D8
:100F80000160704700210161704742684A609368C0
:100F90008B60936859609160086103685B1C036013
:100FA000704710B40B6813F1010F02D104692200DD
:100FB00008E010F10804220054682468A34201D319
:100FC0005268F9E754684C604C68A1608A605160CF
:100FD00008610468641C046010BC70470100086963
:100FE0008A684B689A604A688B685A6042688A428D
:100FF00001D18A68426000220A610268521E0260C2
:1010000000687047001F5FF080730360001F4B088B
:101010005B000360001F0FF21503036014380260C9
:10102000001F7FF002030360203870477C4800688F
:1010300010F1010F07D0502080F31188BFF34F8FBC
:10104000BFF36F8FFEE7502080F31188BFF34F8FFF
:10105000BFF36F8FFEE700B583B072480068724936
:10106000884207D1502080F31188BFF34F8FBFF320
:101070006F8FFEE76B4800686C49884207D15020AB
:1010800080F31188BFF34F8FBFF36F8FFEE768487F
:1010900001780191FF21017001788DF800109DF811
:1010A000001011F05001634A11700721624A11606B
:1010B0009DF8001009060AD55F490968491E5E4A75
:1010C00011609DF8001049008DF80010F0E75A49B2
:1010D00009680902584A11605749096811F4E0612A
:1010E000554A1160019901705448006850F470002D
:1010F000524908605148006850F070404F490860FC
:1011000000F059F800204649086000F00BFB4C48FD
:10111000006850F040404A49086000F0F7FA0020AB
:101120000EBD502080F31188BFF34F8FBFF36F8F38
:101130003B480068401C3A4908603948006801286B
:101140000BD140480068000607D0502080F311887A
:10115000BFF34F8FBFF36F8FFEE7704730480068D3
:10116000002807D1502080F31188BFF34F8FBFF3C1
:101170006F8FFEE72A480068401E2949086028480A
:101180000068002802D1002080F31188704780B5E4
:10119000502080F31188BFF34F8FBFF36F8FFFF79D
:1011A00061FA002803D05FF08050264908600020D3
:1011B00080F3118801BD244800684FF47A71B0FBB8
:1011C000F1F0401E2149086007202149086070475E
:1011D000EFF305821000102810D31E4A1268825CBB
:1011E0001100144A1278C9B2914207D2502282F3F8
:1011F0001188BFF34F8FBFF36F8FFEE70E4A12685F
:10120000154B1B6813F4E0639A4207D2502282F315
:101210001188BFF34F8FBFF36F8FFEE77047000059
:101220000400002000ED00E071C20F4170C20F41C8
:1012300000E400E0A84D0120544D012020ED00E025
:1012400034EF00E004ED00E00800002014E000E0CE
:1012500010E000E0C82300080CED00E01CB50024FD
:1012600000F0DFF9DFF80804006800280ED0DFF88E
:10127000040401900220009000234FF48272DFF8F2
:10128000F8130FF20110FEF77FFF0400002C07D1C6
:10129000502080F31188BFF34F8FBFF36F8FFEE7AD
:1012A000200016BD2DE9FE4304000D0016001F00AE
:1012B000DDF828805FF00009002C07D1502080F372
:1012C0001188BFF34F8FBFF36F8FFEE7DFF8A003E6
:1012D0000068002825D0009501960294062D17DAA3
:1012E000FFF71CFC022809D1002342466946DFF8BB
:1012F0008003006800F0B5FA814612E00023002266
:101300006946DFF86C03006800F0ABFA814608E03C
:1013100000233A006946DFF85803006800F07AFBC2
:1013200081464846BDE8FE83F8B504000D00DFF8AD
:101330004C030068C068C768381DFFF74FFEF869A6
:1013400001281BD123002A00B8690119380000F0D8
:1013500089F8002812D000200090002322000021EC
:101360003800FFF79FFF0600002E07D1502080F3C2
:101370001188BFF34F8FBFF36F8FFEE73800796A94
:101380008847F1BD38B50400684600F040F8050014
:101390000099280000F003F800F08CF8F4E770B52D
:1013A00082B004000E00FFF7D1F8684600F046F85E
:1013B00005000098002827D1002E08D1A54206D3A9
:1013C000FFF7CCF829002000FFF7AEFF1EE0002E4B
:1013D00007D0AB4800680068002801D1012600E072
:1013E00000263200611BA248006800F04DFDFFF7A7
:1013F000B5F800280AD15FF08050A2490860BFF319
:101400004F8FBFF36F8F01E0FFF7A8F873BD0100A6
:101410009A4A12681268002A01D1012200E00022D3
:10142000D2B20A600A68002A05D1944A1268D268CA
:101430001268100001E000221000704738B5040067
:10144000FFF70BF9050090480068854204D200F0D0
:10145000A0F80120206001E0002020608A4805609B
:10146000280032BD2DE9F04104000D0016001F00D8
:101470005FF0000865602461AE420CD3F01BA169E7
:10148000884202D30120804611E0211D7C4800687B
:10149000FFF787FD0BE0BE4204D2BD4202D301201C
:1014A000804604E0211D75480068FFF77AFD40463C
:1014B000BDE8F08170B586B00023002201A96C4818
:1014C000006800F01EFB002861D001980028F3D4CA
:1014D000039804006069002802D0201DFFF77EFDFC
:1014E00004A8FFF7ABFF0600019800280ED00228E1
:1014F0000CD00BD3042830D02ED3062806D041D3ED
:10150000082829D002D3092827D03FE0029B3200C7
:101510000298A16909182000FFF7A4FF00281AD03B
:101520002000616A8847E069012814D100200090FA
:1015300000230298A1690A1800212000FFF7B2FEDB
:101540000500002D07D1502080F31188BFF34F8F85
:10155000BFF36F8FFEE7AFE7AEE70298A061A06927
:10156000002807D1502080F31188BFF34F8FBFF3BD
:101570006F8FFEE733003200A06981192000FFF76A
:1015800071FF99E72000FFF777FC95E794E706B035
:1015900070BD2DE9F04182B038480068006800282D
:1015A00034D036480068C0680068040033480068DA
:1015B000C068C0680700381DFFF710FD3800796A61
:1015C0008847F8690128E7D1B86900190500AC42DD
:1015D00007D27D603F61391D28480068FFF7E1FCB4
:1015E000DAE7002000900023220000213800FFF7F6
:1015F00059FE8046B8F1000F07D1502080F31188C2
:10160000BFF34F8FBFF36F8FFEE7C5E71B4800683E
:1016100006001B4800681949086019480660BDE8C3
:10162000F38180B5FFF77DFD1148006800281BD1CC
:101630001648FFF798FC1648FFF795FC13480F492A
:10164000086013480E49086000220C210A2000F0AF
:10165000C1F80749086006480068002804D00D4911
:101660000348006800F0F8FBFFF778FD01BD0000BB
:101670009C4D0120A04D0120B8230008944D01206D
:10168000984D012004ED00E0A44D0120184D0120EB
:101690002C4D0120C0230008EFF30980BFF36F8FAA
:1016A000244B1A681EF0100F08BF20ED108A20E9A5
:1016B000F04F106008B44FF0500080F31188BFF372
:1016C0004F8FBFF36F8FFFF763F84FF0000080F389
:1016D000118808BC19680868B0E8F04F1EF0100FB8
:1016E00008BFB0EC108A80F30988BFF36F8F704792
:1016F000104B19680868B0E8F04F80F30988BFF311
:101700006F8F4FF0000080F3118870470A4800681F
:10171000006880F3088862B661B6BFF34F8FBFF3ED
:101720006F8F00DFDFF81400016841F47001016081
:1017300070470000584D012008ED00E088ED00E002
:1017400070B504000D002600002E07D1502080F354
:101750001188BFF34F8FBFF36F8FFEE7FFF7E1FCF8
:101760003068F16B326C02FB010070600020B063E6
:101770003068B0603068F16B491E326C02FB0100CA
:10178000F0605FF0FF3086F844005FF0FF3086F8CD
:101790004500002D12D13069002817D016F1100035
:1017A000FFF774F8002811D05FF08050DFF8D016F2
:1017B0000860BFF34F8FBFF36F8F07E016F1100083
:1017C000FFF7D1FB16F12400FFF7CDFBFFF7C6FCB6
:1017D000012070BD2DE9F84304000D001600002C17
:1017E00007D1502080F31188BFF34F8FBFF36F8F65
:1017F000FEE7002D02D10020804602E005FB04F048
:10180000804618F15000FFF7D2FA0700002F0AD0E7
:1018100017F15000814600973300DBB24A46290099
:10182000200000F003F83800BDE8F2832DE9F04114
:1018300004000D0016001F00DDF81880002D02D1F5
:10184000C8F8008001E0C8F80060C8F83C40C8F85B
:10185000405001214046FFF773FF88F84C70BDE807
:10186000F0812DE9F74304000D001E005FF0000831
:10187000A146B9F1000F07D1502080F31188BFF3C2
:101880004F8FBFF36F8FFEE7002D03D1D9F84000D3
:10189000002801D1012000E00020C0B2002807D1BB
:1018A000502080F31188BFF34F8FBFF36F8FFEE797
:1018B000022E03D1D9F83C00012801D1012000E01B
:1018C0000020C0B2002807D1502080F31188BFF358
:1018D0004F8FBFF36F8FFEE7FFF720F9002802D18B
:1018E0000298002801D1012000E00020C0B20028A9
:1018F00007D1502080F31188BFF34F8FBFF36F8F54
:10190000FEE7FFF70EFCD9F83800D9F83C10884202
:1019100001D3022E28D132002900484600F0DFF919
:101920000700D9F8240000280FD019F12400FEF791
:10193000ADFF002814D05FF08050DFF84415086038
:10194000BFF34F8FBFF36F8F0AE0002F08D05FF017
:101950008050DFF82C150860BFF34F8FBFF36F8FF7
:10196000FFF7FCFB012053E00298002803D1FFF7AA
:10197000F5FB00204CE0B8F1000F04D16846FEF7FB
:10198000D1FF01208046FFF7E9FBFEF7DFFDFFF7FF
:10199000C8FB99F9440010F1010F02D1002089F829
:1019A000440099F9450010F1010F02D1002089F897
:1019B0004500FFF7D3FB02A96846FEF7C9FF0028E0
:1019C00020D1484600F037FA002815D0029919F1C5
:1019D0001000FEF715FF484600F0E6F9FEF7BEFDE1
:1019E00000288ED15FF08050DFF894140860BFF3B8
:1019F0004F8FBFF36F8F84E7484600F0D5F9FEF7AD
:101A0000ADFD7EE7484600F0CFF9FEF7A7FD0020C8
:101A1000BDE8FE832DE9F84F04000D0016001F00FD
:101A2000A246BAF1000F07D1502080F31188BFF30E
:101A30004F8FBFF36F8FFEE7002D03D1DAF8400020
:101A4000002801D1012000E00020C0B2002807D109
:101A5000502080F31188BFF34F8FBFF36F8FFEE7E5
:101A6000022F03D1DAF83C00012801D1012000E067
:101A70000020C0B2002807D1502080F31188BFF3A6
:101A80004F8FBFF36F8FFEE7FFF7A2FBEFF31180DD
:101A90008146502080F31188BFF34F8FBFF36F8FC3
:101AA000DAF83800DAF83C10884201D3022F21D14D
:101AB0009AF945B03A002900504600F010F94FFA63
:101AC0008BFB1BF1010F0ED1DAF8240000280ED099
:101AD0001AF12400FEF7DAFE002808D0002E06D006
:101AE0000120306003E01BF101008AF8450001206D
:101AF000804601E00020804689F311884046BDE819
:101B0000F28F2DE9F44783B004000D001E0000277A
:101B1000A146B9F1000F07D1502080F31188BFF31F
:101B20004F8FBFF36F8FFEE7002D03D1D9F8400030
:101B3000002801D1012000E00020C0B2002807D118
:101B4000502080F31188BFF34F8FBFF36F8FFEE7F4
:101B5000FEF7E4FF002802D10398002801D10120FC
:101B600000E00020C0B2002807D1502080F3118887
:101B7000BFF34F8FBFF36F8FFEE7FFF7D2FAD9F8AD
:101B800038A0BAF1000F41D0D9F80C0080462900E6
:101B9000484600F0F1F8002E1FD1BAF10100C9F853
:101BA0003800D9F80000002803D1FFF77DF8C9F804
:101BB0000400D9F81000002824D019F11000FEF715
:101BC00065FE00281ED05FF08050DFF8B412086078
:101BD000BFF34F8FBFF36F8F14E0C9F80C80D9F8B3
:101BE000240000280ED019F12400FEF74FFE002833
:101BF00008D05FF08050DFF888120860BFF34F8F85
:101C0000BFF36F8FFFF7AAFA012065E00398002861
:101C100003D1FFF7A3FA00205EE0002F04D168464D
:101C2000FEF780FE01200700FFF798FAFEF78EFC12
:101C3000FFF777FA99F9440010F1010F02D1002063
:101C400089F8440099F9450010F1010F02D10020F4
:101C500089F84500FFF782FA03A96846FEF778FE87
:101C600000282DD1484600F0D6F8002822D0D9F817
:101C70000000002807D1FFF754FAD9F80400FEF756
:101C800060FFFFF76BFA039919F12400FEF7B8FD26
:101C9000484600F089F8FEF761FC00287FF46DAF3C
:101CA0005FF08050DFF8D8110860BFF34F8FBFF3AB
:101CB0006F8F62E7484600F077F8FEF74FFC5CE76D
:101CC000484600F071F8FEF749FC484600F0A3F8DA
:101CD00000283FF452AF002004B0BDE8F0872DE9A2
:101CE000F04704000D0016000027A06B8046206C12
:101CF000002809D12068002838D16068FEF777FFF6
:101D000007000020606031E0002E13D1D4F840902D
:101D1000D4F808A04A462900504600F0DBF8A06835
:101D2000216C0818A060A068616888421ED32068F2
:101D3000A0601BE0D4F84090D4F80CA04A462900DB
:101D4000504600F0C7F8E068216C401AE060E06897
:101D50002168884203D26068216C401AE060022E3C
:101D600004D1B8F1000F01D0B8F1010818F1010059
:101D7000A0633800BDE8F087F8B504000D00206CC2
:101D8000002810D0E068216C0818E060E068616805
:101D9000884201D32068E060266CE7683200390091
:101DA000280000F097F8F1BD70B50400FFF7B9F90D
:101DB00094F945506DB2012D0CDB606A002809D002
:101DC00014F12400FEF762FD002801D0FEF705FEA5
:101DD0006D1EEFE75FF0FF3084F84500FFF7BEF9B6
:101DE000FFF79FF994F9446076B2012E0CDB20696D
:101DF000002809D014F11000FEF748FD002801D09A
:101E0000FEF7EBFD761EEFE75FF0FF3084F844004D
:101E1000FFF7A4F970BD38B50400FFF782F9A06B95
:101E2000002802D10120050001E000200500FFF795
:101E300095F9280032BD38B50400FFF772F9A06BA0
:101E4000E16B884202D10120050001E0002005007D
:101E5000FFF784F9280032BD00231A00082A0ED2A9
:101E6000084B53F83230002B07D1064B43F83210A1
:101E7000044B13EBC203586001E0521CEEE77047BD
:101E800004ED00E0744C0120F8B504000D001600CC
:101E90002700FFF746F997F9440010F1010F02D12E
:101EA000002087F8440097F9450010F1010F02D196
:101EB000002087F84500FFF751F9B86B002805D1DD
:101EC0003200290017F12400FEF7BAFC3800FFF7B2
:101ED0006BFFF1BD62B38B0708D0521E11F8013BB6
:101EE00000F8013B00F024808B07F6D1830740F017
:101EF000208000BF103A07D330B4B1E83810103A50
:101F0000A0E83810F9D230BC530724BFB1E808105C
:101F1000A0E8081044BF51F8043B40F8043BD20746
:101F200024BF31F8022B20F8022B44BF0B7803703A
:101F30007047083A07D3B1E80810083A40F8043B64
:101F400040F804CBF7D25307E4E7080080B55248C5
:101F5000006850F47000504908605048006850F024
:101F600001004E49086000204D4908604B48006858
:101F70004C490840494908604B484C49086047486B
:101F8000006830F480204549086000204849086016
:101F900000F005F85FF000604649086001BD82B0BE
:101FA00000200190002000903C48006850F48030F0
:101FB0003A4908603948006810F4003000900198F0
:101FC000401C01900098002803D10198B0F5A06F43
:101FD000F0D132480068800302D50120009001E072
:101FE000002000900098012802D133482F49086052
:101FF0003248006850F0805030490860304800682E
:1020000050F440402E490860254800682449086083
:102010002348006850F400402149086020480068C7
:1020200050F4A0501E4908601C48006850F08070B1
:102030001A490860194800688001FBD520480068EB
:1020400050F480301E4908601E480068C003FBD56C
:102050001B48006850F400301949086019480068AE
:102060008003FBD540F20570174908600C480068F2
:10207000800880000A4908600948006850F00200A2
:10208000074908600648006810F00C000828F9D1DC
:1020900002B070470000000088ED00E00038024008
:1020A00008380240FFFFF6FE1030002404380240DA
:1020B0000C38024008ED00E0085A40074038024062
:1020C0000070004004700040003C024000B583B046
:1020D0000121402000F054F801208DF80400002078
:1020E0008DF806004FF4C040009000208DF80700E6
:1020F00002208DF8050069461C4800F053F807BD22
:1021000010B504004FF48041184800F0A0F80020FA
:10211000FEF74AF910BD1CB504006420FEF7B6F9BD
:102120004FF40051114800F092F800200190022075
:10213000009000234FF4FA620D490E48FEF724F890
:102140006420FEF7A3F9EBE700B583B0FFF7BEFF0D
:10215000002001900120009000234FF4FA6206490C
:102160000648FEF711F8FEF7B8F9FEE7001802403E
:10217000A023000801210008A82300081721000857
:10218000C9B2002905D0064A12680243044B1A60FE
:1021900004E0034A12688243014B1A607047000052
:1021A00030380240F0B400220023002400252A0029
:1021B000102A4AD2012595402B000D681D402C00A5
:1021C0009C4240D1056803261700FFB27F00BE4045
:1021D000B543056005680E791700FFB27F00BE4069
:1021E000354305600D79012D02D00D79022D1AD1EC
:1021F000856803261700FFB27F00BE40B5438560A7
:1022000085684E791700FFB27F00BE403543856078
:10221000456801269640B543456045688E799640ED
:10222000B6B235434560C56803261700FFB27F008C
:10223000BE40B543C560C568CE791700FFB27F00C8
:10224000BE403543C560521CB2E7F0BC70474269DE
:1022500089B24A404261704719E050F8041BCB072D
:1022600044BFA9F101035918121F0023042A41F8A1
:10227000043BF9D25FEA827C0B4604D54FF0000C98
:10228000A1F800C09B1CD10744BF0021197050F871
:10229000042B002AE1D1704710B450F8041B79B127
:1022A0000268436812180830DC0744BFA9F1010432
:1022B000E31852F8044B43F8044B091FF9D1ECE73B
:1022C00010BC704710B5074979441831064C7C445E
:1022D000163404E00A68081D511888470146A142D7
:1022E000F8D110BD2C0000004C0000004EF68851C3
:1022F000CEF20001086840F470000860BFF34F8F11
:10230000BFF36F8F4FF00070E1EE100A70470000CE
:1023100049FFFFFF9C2D010010200020000000005D
:1023200079FFFFFF0C0000006C000000000000209F
:102330000000000000F00BF8002801D0FFF7C2FFFA
:102340000020C046C046FFF7FFFE00F002F8012063
:10235000704700F001B800000746384600F002F868
:10236000FBE7000080B5C046C046024A11001820B5
:10237000ABBEFBE72600020001488047014800474A
:102380004D1F000889230008C046C046FFF7AEFF76
:10239000FFF7D0FFF82B0100AAAAAAAA0095BA0A53
:1023A000765461736B3200005461736B203100000E
:1023B00049444C4500000000546D72205376630080
:1023C000546D725100000000F0E300E0FFF7FEBF23
:1023D000FFF7FEBFFFF7FEBFFFF7FEBFFFF7FEBF31
:1023E000FFF786B9FFF7FEBFFFF756B9FEF7CFBE7E
:1023F000FFF7FEBFFFF7FEBFFFF7FEBFFFF7FEBF11
:10240000FFF7FEBFFFF7FEBFFFF7FEBFFFF7FEBF00
:10241000FFF7FEBFFFF7FEBFFFF7FEBFFFF7FEBFF0
:10242000FFF7FEBFFFF7FEBFFFF7FEBFFFF7FEBFE0
:10243000FFF7FEBFFFF7FEBFFFF7FEBFFFF7FEBFD0
:10244000FFF7FEBFFFF7FEBFFFF7FEBFFFF7FEBFC0
:10245000FFF7FEBFFFF7FEBFFFF7FEBFFFF7FEBFB0
:10246000FFF7FEBFFFF7FEBFFFF7FEBFFFF7FEBFA0
:10247000FFF7FEBFFFF7FEBFFFF7FEBFFFF7FEBF90
:10248000FFF7FEBFFFF7FEBFFFF7FEBFFFF7FEBF80
:10249000FFF7FEBFFFF7FEBFFFF7FEBFFFF7FEBF70
:1024A000FFF7FEBFFFF7FEBFFFF7FEBFFFF7FEBF60
:1024B000FFF7FEBFFFF7FEBFFFF7FEBFFFF7FEBF50
:1024C000FFF7FEBFFFF7FEBFFFF7FEBFFFF7FEBF40
:1024D000FFF7FEBFFFF7FEBFFFF7FEBFFFF7FEBF30
:1024E000FFF7FEBFFFF7FEBFFFF7FEBFFFF7FEBF20
:1024F000FFF7FEBFFFF7FEBFFFF7FEBFFFF7FEBF10
:10250000FFF7FEBFFFF7FEBFFFF7FEBFFFF7FEBFFF
:10251000FFF7FEBFFFF7FEBFFFF7FEBFFFF7FEBFEF
:10252000FFF7FEBFFFF7FEBFFFF7FEBFFFF7FEBFDF
:08253000FFF7FEBFFFF7FEBF3D
:040000050800238943
:00000001FF
