:020000040800F2
:1000000000200010C5250008D5250008D9250008C6
:10001000DD250008E1250008E525000800000000B6
:100020000000000000000000000000006D16000845
:10003000E92500080000000015160008231100083B
:10004000ED250008F1250008F5250008F925000830
:10005000FD250008012600080526000809260008DD
:100060000D2600081126000815260008192600088C
:100070001D2600082126000825260008292600083C
:100080002D260008312600083526000839260008EC
:100090003D2600084126000845260008492600089C
:1000A0004D2600086B200008512600085526000840
:1000B000592600085D26000861260008652600080C
:1000C000692600086D2600087126000875260008BC
:1000D000792600087D26000881260008852600086C
:1000E000892600088D26000891260008952600081C
:1000F000992600089D260008A1260008A5260008CC
:10010000A9260008AD260008B1260008B52600087B
:10011000B9260008BD260008C1260008C52600082B
:10012000C9260008CD260008D1260008D5260008DB
:10013000D9260008DD260008E1260008E52600088B
:10014000E9260008ED260008F1260008F52600083B
:10015000F9260008FD2600080127000805270008E9
:10016000092700080D270008112700081527000897
:10017000192700081D270008212700082527000847
:10018000292700082D2700082DE9F04F85B006002B
:100190000F0090469946DDF838A0DDF83CB01FFA14
:1001A00088F85FEA880000F0CCFD0500002D0BD038
:1001B000582000F0C6FD0400002C01D0256304E0A7
:1001C000280000F027FE00E00024002C13D00020BF
:1001D00003900294CDF804B0CDF800A04B461FFA6E
:1001E00088F842463900300000F00AF8200000F09C
:1001F00077F8012001E05FF0FF3005B0BDE8F08F37
:100200002DE9F14F82B00D0016001F00DDF830809F
:100210000D9CDDF83890B00000905FF0A50BD9F888
:1002200030A05A460099504600F036FED9F830000A
:1002300000EB8600B0F1040A5FEADA0A5FEACA0A54
:100240001AF00700002807D0502080F31188BFF370
:100250004F8FBFF36F8FFEE75FF0000BBBF10A0F0C
:100260000CD215F80B0009EB0B0181F8340015F8DE
:100270000B00002802D01BF1010BEFE7002089F8EA
:100280003D00B8F1050F01D304208046C9F82C8049
:10029000C9F848800020C9F84C0019F1040000F0AA
:1002A0003DFE19F1180000F039FEC9F81090D8F1A0
:1002B0000500C9F81800C9F824900020C9F85000BA
:1002C000002089F854003A000299504600F064FE7C
:1002D000C9F80000002C01D0C4F80090BDE8F78FE9
:1002E00010B5040000F0E7FEDFF84C040068401C85
:1002F000DFF844140860DFF8B404006800280AD16D
:10030000DFF8A8040460DFF830040068012811D188
:1003100000F055FB0EE0DFF898040068002809D1D2
:10032000E06ADFF888140968C96A884202D3DFF8F6
:100330007C040460DFF8B0040068401CDFF8A814F7
:100340000860DFF8A40400682064DFF8A0040168F6
:100350000122E06A82401143DFF890040160211D10
:10036000DFF88C24E36A1420434302EB030000F01F
:10037000D8FD00F0BDFEDFF83804006800280FD07B
:10038000DFF828040068C06AE16A884208D25FF09A
:100390008050DFF864150860BFF34F8FBFF36F8F95
:1003A00010BD38B5040000F086FE002C03D1DFF844
:1003B000FC03056800E02500281D00F0D9FD002899
:1003C00011D1DFF82C14EA6A14204243885800281F
:1003D00009D1DFF8180401680122E86A82409143DC
:1003E000DFF808040160A86A002803D015F118009E
:1003F00000F0BEFDDFF8F0030068401CDFF8E813F2
:100400000860DFF8A803006885420CD1291DDFF8D9
:10041000280400F086FDDFF824040068401CDFF8A3
:100420001C1408600BE0DFF810030068401EDFF8C2
:1004300008130860280000F021FB00F028FB00F002
:1004400057FEDFF86C03006800281AD0DFF85C0361
:100450000068854215D1DFF870040068002807D0D5
:10046000502080F31188BFF34F8FBFF36F8FFEE7EB
:100470005FF08050DFF880140860BFF34F8FBFF348
:100480006F8F31BD1CB5DFF8DC07019000200090B4
:1004900000238222DFF8D0170FF2F940FFF774FE35
:1004A0000400012C02D100F09DFE0400012C16D1A5
:1004B000502080F31188BFF34F8FBFF36F8F5FF031
:1004C000FF30DFF8A81708600120DFF8E4120860A9
:1004D0000020DFF8F813086000F087FD0AE014F14F
:1004E000010F07D1502080F31188BFF34F8FBFF366
:1004F0006F8FFEE713BDDFF8D0030068401CDFF804
:10050000C8130860704770B500250026DFF8B803EF
:100510000068002807D1502080F31188BFF34F8F67
:10052000BFF36F8FFEE700F0C6FDDFF89C030068A5
:10053000401EDFF894130860DFF88C030068002881
:100540005BD17D480068002857D0DFF814070068A9
:1005500000282AD0DFF80807C068C068050015F138
:10056000180000F005FD281D00F002FDDFF87C02F8
:1005700001680122E86A82401143DFF870020160DD
:10058000291DDFF86C22EB6A1420434302EB0300C1
:1005900000F0C7FCE86A85490968C96A8842D4D373
:1005A0000120DFF8D0160860CFE7002D01D000F061
:1005B0006EFADFF8BC060468002C0ED000F025F8B7
:1005C000002803D00120DFF8AC160860641E002C60
:1005D000F4D10020DFF898160860DFF8980600686C
:1005E00000280AD0012006005FF08050DFF80813D1
:1005F0000860BFF34F8FBFF36F8F00F079FD3000BD
:1006000070BDDFF8C802006870472DE9F04100278F
:10061000AD48006800287CD1DFF8B0020468641C93
:10062000DFF8A8020460002C24D1DFF85C03006826
:100630000068002807D0502080F31188BFF34F8F47
:10064000BFF36F8FFEE7DFF84003D0F80080DFF8DC
:100650003C030068DFF830130860DFF83003C0F8AF
:100660000080DFF814060068401CDFF80C160860F4
:1006700000F00DFADFF8F405006884423DD3DFF89E
:10068000080300680068002805D15FF0FF30DFF83C
:10069000DC15086031E0DFF8F0020068C068C0686F
:1006A000050068680600B44203D2DFF8C0050660A2
:1006B00023E0281D00F05CFCA86A002803D015F197
:1006C000180000F055FC494801680122E86A8240A0
:1006D000114346480160291D454AEB6A14204343F3
:1006E00002EB030000F01DFCE86A30490968C96AA2
:1006F0008842C4D301200700C1E73D492B48006868
:10070000C26A142042438858022809D301200700F6
:1007100006E0DFF85C050068401CDFF8541508604F
:10072000DFF850050068002801D0012007003800DC
:10073000BDE8F08100000000682D012062480068DB
:10074000002804D00120DFF82C1508602CE00020E0
:10075000DFF82015086025480068B0FA80F1D1F173
:100760001F012348142202FB01F28058002807D100
:10077000502080F31188BFF34F8FBFF36F8FFEE7D8
:100780001B48142202FB01F2104442685268426086
:10079000426810F108039A4202D1426852684260EE
:1007A0004068C068014A106070470000582D012061
:1007B000742D012038B504000D00002C07D1502005
:1007C00080F31188BFF34F8FBFF36F8FFEE7DFF821
:1007D0003005006810F11801200000F0AEFB012187
:1007E000280000F04DFA31BD842D0120702D01202C
:1007F000082C012070B505000E001400002D07D153
:10080000502080F31188BFF34F8FBFF36F8FFEE747
:10081000DFF8EC04006810F11801280000F081FBFB
:10082000002C02D05FF0FF3006002100300000F005
:1008300027FA70BD00000000E82C0120642D012083
:1008400038B50500E868C468002C07D1502080F353
:100850001188BFF34F8FBFF36F8FFEE714F11800BD
:1008600000F086FB18480068002817D1201D00F012
:100870007FFBDFF8900401680122E06A82401143A7
:10088000DFF880040160211DDFF87C24E36A142076
:10089000434302EB030000F044FB05E014F11801B0
:1008A000DFF8BC0300F03DFBDFF854040068C06AC9
:1008B000E16A884205D201200121DFF8C0231160DE
:1008C00000E0002032BD0000902D01206C2D0120A1
:1008D000002807D1502181F31188BFF34F8FBFF358
:1008E0006F8FFEE7DFF8901309680160DFF82014CE
:1008F000096841607047000004ED00E0F8B50400AD
:100900000D00002C07D1502080F31188BFF34F8FCA
:10091000BFF36F8FFEE7002D07D1502080F31188C1
:10092000BFF34F8FBFF36F8FFEE700F0C4FBDFF81C
:10093000E0030668286810F1010F01D100271AE0D2
:10094000DFF8340300682168884204D0606886427A
:1009500001D301270FE06068301A2968884209D264
:100960002968891B6068411829602000FFF7B0FFE3
:10097000002700E0012700F0BBFB3800F2BD01209A
:10098000DFF8F812086070475C2D0120602D01200F
:100990007047000010B5040000F03EF8DFF868036F
:1009A0000068022808D35FF08050DFF86813086001
:1009B000BFF34F8FBFF36F8FFFF7EAFFECE710B580
:1009C0000024052C09D2DFF84003142101FB04F1B7
:1009D000084400F094FA641CF3E7DFF83C0300F0ED
:1009E0008EFADFF8380300F08AFADFF8740200F0BC
:1009F00086FADFF82C0300F082FADFF8280300F013
:100A00007EFADFF81403DFF820130860DFF80C0328
:100A1000DFF81813086010BD38B5DFF8140300685C
:100A200000282AD0FFF767FDDFF8F40200680028ED
:100A300001D1012400E00024FFF765FD002CECD17A
:100A400000F039FBDFF8D802C068C568281D00F047
:100A50008FFADFF8E0020068401EDFF8D812086065
:100A6000DFF8CC020068401EDFF8C412086000F016
:100A70003FFB280000F002F8CFE731BD10B50400BD
:100A8000206B00F0C7F9200000F0C4F910BDDFF8BA
:100A9000980200680068002804D15FF0FF30734AB4
:100AA000106008E0DFF880020068C068C0680100DC
:100AB00048686E4A10607047DFF87C0200680028C2
:100AC00001D1012007E0DFF844020068002801D1CD
:100AD000022000E00020704738B504002500002CFB
:100AE00050D0E86ADFF818120968C96A884249D20A
:100AF000A869002806D4DFF808020068C06AD0F1AF
:100B00000500A8616969DFF80022EB6A14204343FD
:100B100002EB0300814230D1281D00F029FA0028A1
:100B200011D1DFF8E411EA6A142042438858002802
:100B300009D1DFF8D00101680122E86A82409143BF
:100B4000DFF8C0010160DFF8B8010068C06AE86240
:100B5000DFF8B00101680122E86A82401143DFF842
:100B6000A4010160291DDFF8A021EB6A1420434392
:100B700002EB030000F0D5F904E0DFF8840100681F
:100B8000C06AE86231BD70B5040025000026002C63
:100B900054D0DFF86C010068854207D0502080F304
:100BA0001188BFF34F8FBFF36F8FFEE7E86C00280B
:100BB00007D1502080F31188BFF34F8FBFF36F8FA1
:100BC000FEE7E86C401EE864E86AA96C884235D00C
:100BD000E86C002832D1281D00F0CAF9002811D194
:100BE000DFF82411EA6A142042438858002809D10A
:100BF000DFF8100101680122E86A82409143DFF8C2
:100C000004010160A86CE862E86AD0F10500A861FF
:100C1000DFF8F00001680122E86A82401143DFF842
:100C2000E4000160291DDFF8E020EB6A1420434353
:100C300002EB030000F075F901200600300070BDE2
:100C4000DFF8BC000068002805D0DFF8B4000068B9
:100C5000C16C491CC164DFF8A8000068704700003F
:100C6000D42C01208C2D01206C280008882D012017
:100C7000782D01207C2D0120802D01207C2D01204C
:100C8000F8B505000C00224807681D480068001DE3
:100C900000F06EF9002809D119480068194909685F
:100CA0000122C06A824091431648016015F1010F8C
:100CB00008D1002C06D012480068011D194800F028
:100CC00030F91BE0E81906000D4800684660BE4296
:100CD00007D20B480068011D1448006800F02DF988
:100CE0000CE007480068011D0F48006800F025F976
:100CF00012480068864201D210480660F1BD00002B
:100D0000582D0120702D0120082C0120902D01204C
:100D10006C2D012004ED00E0AC2C0120C02C012042
:100D2000E82C0120FC2C01205C2D0120602D0120ED
:100D3000642D0120682D0120742D0120882D0120B3
:100D400070472DE9F04104000025FFF7D4FB4B4824
:100D50000068002804D100F07DF8012047490860B0
:100D6000002C0AD046480088241814F0070F04D03D
:100D700014F1080014F00704041B002C41D0414872
:100D800084423ED2404806003F4800688046D8F87A
:100D90000400A04207D2D8F80000002803D046463D
:100DA000D8F80080F3E7394880452AD030683449C4
:100DB000098808440500D8F80000306030480088F1
:100DC0004000D8F80410091B884213D208EB040035
:100DD0000700D8F80400001B7860C8F80440796860
:100DE0002948026852688A4201D20068F9E702681D
:100DF0003A60076026480168D8F80400091A2448B8
:100E00000160FFF780FB002D01D1FFF799FF28005B
:100E1000BDE8F081F8B504002600002C19D0184870
:100E20000088404206443500FFF765FB6F681648AE
:100E300001684968B94201D20068F9E70168296090
:100E40000560134801686868411811480160FFF7A0
:100E50005AFBF1BD0F48C008C0000B4908600021D3
:100E6000094A51600749094A51600021074A116047
:100E7000044941600549016070470000482D012088
:100E80008E1F0008F82B0100382D0120402D012075
:100E9000000000201000002062F30F2262F31F42C6
:100EA000401810F0030308D0C91A1FD3DB0748BF4E
:100EB00000F8012D28BF20F8022D130030B414468D
:100EC0001546103928BF20E93C00FAD8490728BF49
:100ED00020E90C0048BF40F8042D890028BF20F805
:100EE000022D48BF00F8012D30BC7047C91818BF4B
:100EF00000F8012DCB0728BF00F8012D704710F135
:100F0000080141605FF0FF31816010F10801C160AC
:100F100010F10801016100210160704700210161A9
:100F2000704742684A6093688B609368596091602B
:100F3000086103685B1C0360704710B40B6813F111
:100F4000010F01D1026907E010F10802546824681A
:100F5000A34201D35268F9E754684C604C68A16021
:100F60008A60516008610468641C046010BC7047AA
:100F7000010008698A684B689A604A688B685A6001
:100F800042688A4201D18A68426000220A6102688E
:100F9000521E026000687047001F5FF0807303609C
:100FA000001F4B085B000360001F0FF21503036076
:100FB00014380260001F7FF002030360203870477E
:100FC0007648006810F1010F07D0502080F3118897
:100FD000BFF34F8FBFF36F8FFEE7502080F3118870
:100FE000BFF34F8FBFF36F8FFEE700B583B06C4840
:100FF00000686C49884207D1502080F31188BFF304
:101000004F8FBFF36F8FFEE76548006866498842DF
:1010100007D1502080F31188BFF34F8FBFF36F8F3C
:10102000FEE7624801780191FF21017001788DF897
:1010300000109DF8001011F050015D4A1170072159
:101040005C4A11609DF8001009060AD559490968E3
:10105000491E584A11609DF8001049008DF8001093
:10106000F0E7544909680902524A11605149096878
:1010700011F4E0614F4A1160019901704E48006817
:1010800050F470004C4908604B48006850F07040C4
:101090004949086000F09AF800204049086000F0D3
:1010A000FFFA4648006850F040404449086000F0AC
:1010B000EBFA00200EBD502080F31188BFF34F8F54
:1010C000BFF36F8F35480068401C344908603348CF
:1010D000006801280BD13A480068000607D050206C
:1010E00080F31188BFF34F8FBFF36F8FFEE7704718
:1010F0002A480068002807D1502080F31188BFF3E8
:101100004F8FBFF36F8FFEE724480068401E2349CE
:10111000086022480068002802D1002080F311886E
:10112000704780B5502080F31188BFF34F8FBFF315
:101130006F8FFFF76AFA002803D05FF080502049D4
:101140000860002080F3118801BD0000EFF30580E6
:10115000102811D31B4A1268125C11000A00144BAC
:101160001B78D2B29A4207D2502282F31188BFF381
:101170004F8FBFF36F8FFEE70E4A1268124B1B684A
:1011800013F4E0639A4207D2502282F31188BFF32E
:101190004F8FBFF36F8FFEE7704700000400002001
:1011A00000ED00E071C20F4170C20F4100E400E0A9
:1011B000A82D0120542D012020ED00E034EF00E0A7
:1011C00004ED00E0842800080CED00E040F28F60A0
:1011D00002490860072002490860704714E000E0F7
:1011E00010E000E01CB5002400F0DAF9DFF8FC03A1
:1011F000006800280ED0DFF8F8030190022000906C
:1012000000234FF48272DFF8EC130FF20510FEF7A3
:10121000BBFF0400002C07D1502080F31188BFF3DE
:101220004F8FBFF36F8FFEE7200016BD2DE9FE4301
:1012300004000D0016001F00DDF828805FF0000993
:10124000002C07D1502080F31188BFF34F8FBFF3DC
:101250006F8FFEE7DFF894030068002825D0009523
:1012600001960294062D17DAFFF726FC022809D111
:10127000002342466946DFF87403006800F0B0FAC4
:10128000814612E0002300226946DFF8600300680F
:1012900000F0A6FA814608E000233A006946DFF82C
:1012A0004C03006800F06FFB81464846BDE8FE83B2
:1012B000F8B505000E00DFF840030068C068C76895
:1012C000381DFFF755FEF86901281BD12B003200AD
:1012D000B9694919380000F089F8002812D00020B7
:1012E000009000232A0000213800FFF79FFF040030
:1012F000002C07D1502080F31188BFF34F8FBFF32C
:101300006F8FFEE73800796A8847F1BD0000000062
:1013100038B50400684600F040F805000099280040
:1013200000F003F800F08AF8F4E770B582B0050029
:101330000C00FFF7E0F8684600F044F8060000985B
:10134000002827D1002C08D1AE4206D3FFF7DBF8E6
:1013500031002800FFF7ACFF1EE0002C07D0A748A3
:1013600000680068002801D1012400E00024220068
:10137000A91B9E48006800F091FDFFF7C4F8002803
:101380000AD15FF080509E490860BFF34F8FBFF3D2
:101390006F8F01E0FFF7B7F873BD01009648006852
:1013A0000068002801D1012000E00020C0B20860E0
:1013B0000868002804D190480068C068006800E010
:1013C0000020704738B50400FFF71BF905008D4871
:1013D0000068854204D200F0A0F80120206001E0FE
:1013E0000020206087480560280032BD2DE9F041CB
:1013F00004000D0016001F005FF000086560246106
:10140000AE420CD3F01BA169884202D30120804672
:1014100011E0211D79480068FFF78FFD0BE0BE4207
:1014200004D2BD4202D30120804604E0211D72484F
:101430000068FFF782FD4046BDE8F08170B586B0D8
:101440000023002201A96948006800F06CFB002815
:1014500061D001980028F3D403980500686900283A
:1014600002D0281DFFF784FD04A8FFF7ABFF06009C
:10147000019800280ED002280CD00BD3042830D0BD
:101480002ED3062806D041D3082829D002D3092814
:1014900027D03FE0029B32000299A869411828003A
:1014A000FFF7A4FF00281AD02800696A8847E86976
:1014B000012814D1002000900023029AA869821804
:1014C00000212800FFF7B2FE0400002C07D15020B5
:1014D00080F31188BFF34F8FBFF36F8FFEE7AFE745
:1014E000AEE70298A861A869002807D1502080F3D0
:1014F0001188BFF34F8FBFF36F8FFEE733003200C9
:10150000A96989192800FFF771FF99E72800FFF7FB
:1015100081FC95E794E706B070BDF8B536480068E1
:101520000068002833D034480068C06800680500AF
:1015300031480068C068C0680700381DFFF718FD13
:101540003800796A8847F8690128E7D1B8694019F5
:101550000600B54207D27E603F61391D264800680B
:10156000FFF7EBFCDAE70020009000232A000021BF
:101570003800FFF75BFE0400002C07D1502080F3F9
:101580001188BFF34F8FBFF36F8FFEE7C6E71A488E
:1015900000681A490968184A116018490860F1BDC5
:1015A00080B5FFF788FD1148006800281BD1164858
:1015B000FFF7A5FC1548FFF7A2FC13480E49086089
:1015C00012480E49086000220C210A2000F0C2F8DF
:1015D0000649086005480068002804D00C49034803
:1015E000006800F043FCFFF783FD01BD9C2D012046
:1015F000A02D012074280008942D0120982D012091
:1016000004ED00E0A42D0120102D0120242D012047
:101610007C280008EFF30980BFF36F8F244B1A6812
:101620001EF0100F08BF20ED108A20E9F04F106067
:1016300008B44FF0500080F31188BFF34F8FBFF311
:101640006F8FFFF77BF84FF0000080F3118808BC24
:1016500019680868B0E8F04F1EF0100F08BFB0EC32
:10166000108A80F30988BFF36F8F7047104B196899
:101670000868B0E8F04F80F30988BFF36F8F4FF030
:10168000000080F3118870470A480068006880F302
:10169000088862B661B6BFF34F8FBFF36F8F00DF6C
:1016A000DFF81400016841F4700101607047000028
:1016B000582D012008ED00E088ED00E070B506002F
:1016C0000C003500002D07D1502080F31188BFF3A6
:1016D0004F8FBFF36F8FFEE7FFF7EDFC2968EA6BD2
:1016E000286C424301EB020068600020A863286870
:1016F000A8602968EA6B521E286C424301EB020085
:10170000E8605FF0FF3085F844005FF0FF3085F857
:101710004500002C12D12869002817D015F11000BF
:10172000FFF78EF8002811D05FF08050DFF86417C3
:101730000860BFF34F8FBFF36F8F07E015F1100004
:10174000FFF7DDFB15F12400FFF7D9FBFFF7D0FC15
:10175000012070BD2DE9F84306000D001700002E92
:1017600007D1502080F31188BFF34F8FBFF36F8FE5
:10177000FEE7002D02D15FF0000801E005FB06F84E
:1017800018F15000FFF7DDFA0400002C0AD014F124
:101790005000814600943B00DBB24A4629003000ED
:1017A00000F003F82000BDE8F2832DE9F0410500C8
:1017B0000C0016001F00DDF81880002C02D1C8F8BC
:1017C000008001E0C8F80060C8F83C50C8F840400C
:1017D00001214046FFF772FF88F84C70BDE8F081A8
:1017E0002DE9F74380460D00994600244646002E19
:1017F00007D1502080F31188BFF34F8FBFF36F8F55
:10180000FEE7002D02D1306C002801D1012000E05C
:101810000020C0B2002807D1502080F31188BFF308
:101820004F8FBFF36F8FFEE7B9F1020F02D1F06B5C
:10183000012801D1012000E00020C0B2002807D11A
:10184000502080F31188BFF34F8FBFF36F8FFEE7F7
:10185000FFF732F9002802D10298002801D10120B7
:1018600000E00020C0B2002807D1502080F311888A
:10187000BFF34F8FBFF36F8FFEE7FFF71CFCB06B1A
:10188000F16B884202D3B9F1020F27D14A462900F1
:10189000300000F033FA0700706A00280FD016F10C
:1018A0002400FEF7CDFF002814D05FF08050DFF851
:1018B000E4150860BFF34F8FBFF36F8F0AE0002F6E
:1018C00008D05FF08050DFF8CC150860BFF34F8F71
:1018D000BFF36F8FFFF70CFC012052E00298002845
:1018E00003D1FFF705FC00204BE0002C04D1684633
:1018F000FEF7EEFF01200400FFF7FAFBFEF7FBFD09
:10190000FFF7D9FB96F9440010F1010F02D1002036
:1019100086F8440096F9450010F1010F02D100202D
:1019200086F84500FFF7E4FB02A96846FEF7E6FFEC
:10193000002820D1300000F08AFA002815D0029942
:1019400016F11000FEF736FF300000F03BFAFEF70C
:10195000DAFD002891D15FF08050DFF8381508607B
:10196000BFF34F8FBFF36F8F87E7300000F02AFA85
:10197000FEF7C9FD81E7300000F024FAFEF7C3FD51
:101980000020BDE8FE832DE9F04707000C0015009C
:1019900098463E00002E07D1502080F31188BFF3F7
:1019A0004F8FBFF36F8FFEE7002C02D1306C002801
:1019B00001D1012000E00020C0B2002807D1502052
:1019C00080F31188BFF34F8FBFF36F8FFEE7B8F13D
:1019D000020F02D1F06B012801D1012000E00020AC
:1019E000C0B2002807D1502080F31188BFF34F8F79
:1019F000BFF36F8FFEE7FFF7A9FBEFF311895020CC
:101A000080F31188BFF34F8FBFF36F8FB06BF16B13
:101A1000884202D3B8F1020F1FD196F945A0424681
:101A20002100300000F06AF94FFA8AFA1AF1010F2A
:101A30000DD1706A00280ED016F12400FEF700FFC9
:101A4000002808D0002D06D00120286003E01AF1FC
:101A5000010086F84500012000E0002089F311888C
:101A6000BDE8F0872DE9F84306000C003500002D95
:101A700007D1502080F31188BFF34F8FBFF36F8FD2
:101A8000FEE7286C002807D0502080F31188BFF3B0
:101A90004F8FBFF36F8FFEE72868002802D1686878
:101AA000002801D1012000E00020C0B2002807D1A9
:101AB000502080F31188BFF34F8FBFF36F8FFEE785
:101AC000FFF744FBEFF31187502080F31188BFF339
:101AD0004F8FBFF36F8FD5F83880E86B80451DD2EC
:101AE00095F9459018F10100A8634FFA89F919F1A9
:101AF000010F0DD1686A00280ED015F12400FEF701
:101B00009FFE002808D0002C06D00120206003E0B2
:101B100019F1010085F84500012000E0002087F35D
:101B20001188BDE8F2832DE9F44783B081460E00A9
:101B30001F000024C846B8F1000F07D1502080F3E1
:101B40001188BFF34F8FBFF36F8FFEE7002E03D1D5
:101B5000D8F84000002801D1012000E00020C0B2E8
:101B6000002807D1502080F31188BFF34F8FBFF3B7
:101B70006F8FFEE7FEF7A0FF002802D10398002830
:101B800001D1012000E00020C0B2002807D1502080
:101B900080F31188BFF34F8FBFF36F8FFEE7FFF71E
:101BA0008AFAD8F83850002D3FD0D8F80CA0310070
:101BB000404600F0EFF8002F1ED1681EC8F838002C
:101BC000D8F80000002803D1FFF73AF8C8F804005D
:101BD000D8F81000002824D018F11000FEF730FECD
:101BE00000281ED05FF08050DFF8A8120860BFF315
:101BF0004F8FBFF36F8F14E0C8F80CA0D8F8240003
:101C000000280ED018F12400FEF71AFE002808D094
:101C10005FF08050DFF87C120860BFF34F8FBFF396
:101C20006F8FFFF765FA012065E00398002803D164
:101C3000FFF75EFA00205EE0002C04D16846FEF754
:101C400047FE01200400FFF753FAFEF754FCFFF7AC
:101C500032FA98F9440010F1010F02D1002088F8FF
:101C6000440098F9450010F1010F02D1002088F8D6
:101C70004500FFF73DFA03A96846FEF73FFE00283E
:101C80002DD1404600F0D5F8002822D0D8F8000029
:101C9000002807D1FFF70FFAD8F80400FEF71CFF61
:101CA000FFF726FA039918F12400FEF783FD40465A
:101CB00000F088F8FEF727FC00287FF470AF5FF093
:101CC0008050DFF8D0110860BFF34F8FBFF36F8FE4
:101CD00065E7404600F076F8FEF715FC5FE7404602
:101CE00000F070F8FEF70FFC404600F0A2F8002864
:101CF0003FF455AF002004B0BDE8F0872DE9F04770
:101D000007000E0014005FF00008BD6B386C00285F
:101D100009D13868002838D17868FEF734FF80464A
:101D20000020786031E0002C13D1D7F84090D7F82C
:101D300008A04A463100504600F0D6F8B868396C21
:101D40000844B860B868796888421ED33868B860BB
:101D50001BE0D7F84090D7F80CA04A463100504617
:101D600000F0C2F8F868396C49420844F860F86835
:101D70003968884204D27868396C49420844F8606E
:101D8000022C02D1002D00D06D1E681CB8634046A5
:101D9000BDE8F087F8B504000D00206C002810D0D5
:101DA000E068216C0844E060E0686168884201D323
:101DB0002068E060266CE76832003900280000F0F7
:101DC00093F8F1BD70B50400FFF775F994F945502B
:101DD0006DB2012D0CDB606A002809D014F12400DB
:101DE000FEF72EFD002801D0FEF7C9FD6D1EEFE7BE
:101DF0005FF0FF3084F84500FFF77AF9FFF75BF9F1
:101E000094F9446076B2012E0CDB2069002809D0D9
:101E100014F11000FEF714FD002801D0FEF7AFFD0D
:101E2000761EEFE75FF0FF3084F84400FFF760F9BB
:101E300070BD38B50400FFF73EF9A06B002801D152
:101E4000012500E00025FFF753F9280032BD38B521
:101E50000400FFF730F9A06BE16B884201D1012546
:101E600000E00025FFF744F9280032BD0023082BCD
:101E70000ED2094A52F83320002A07D1064A42F806
:101E80003310054A02EBC302506001E05B1CEEE731
:101E90007047000004ED00E06C2C0120F8B5040050
:101EA0000D0016002700FFF706F997F9440010F11E
:101EB000010F02D1002087F8440097F9450010F186
:101EC000010F02D1002087F84500FFF711F9B86B28
:101ED000002805D13200290017F12400FEF78AFC02
:101EE0003800FFF76FFFF1BD62B38B0708D0521EB9
:101EF00011F8013B00F8013B00F024808B07F6D17C
:101F0000830740F0208000BF103A07D330B4B1E817
:101F10003810103AA0E83810F9D230BC530724BF6B
:101F2000B1E80810A0E8081044BF51F8043B40F89D
:101F3000043BD20724BF31F8022B20F8022B44BF08
:101F40000B7803707047121F17D35B0009D151F84B
:101F5000043B20F8023B1B0C121F20F8023BF6D278
:101F60000BE051F8043B00F8013B1B0A20F8023B50
:101F70001B0C121F00F8013BF3D238BF121D521E7A
:101F800024BF11F8013B00F8013BF8D87047080066
:101F900010B440B2002808D50A01844B40B210F0BA
:101FA0000F04234403F8042C03E00A01804B40B2E1
:101FB0001A5410BC704700B583B00121082000F00E
:101FC0000BF901208DF8040000208DF806004FF475
:101FD0007040009000208DF8070002208DF8050069
:101FE0006946744800F01AF907BD00B585B00121B3
:101FF000012000F000F94BF68030ADF8040000201D
:10200000ADF806004FF47A7002900020ADF80C0095
:1020100000208DF80E0001A9674800F059F9002151
:10202000654800F099F90021634800F087F9012222
:102030000121614800F0BAF919208DF800000F2045
:102040008DF801000F208DF8020001208DF80300AB
:10205000684600F0BBF90F211920FFF799FF012115
:10206000554800F087F905B000BD80B553480068B9
:10207000002807D1502080F31188BFF34F8FBFF3A2
:102080006F8FFEE74FF400414A4800F01BF9012131
:10209000494800F096F900204949086048494748F6
:1020A0000068FFF7DFFC46480068012807D15FF0B1
:1020B000805044490860BFF34F8FBFF36F8F01BD5D
:1020C00010B504004FF400513A4800F0FBF800202E
:1020D000FEF767F910BD1CB504004FF48051354878
:1020E00000F0F0F835480068002807D1502080F350
:1020F0001188BFF34F8FBFF36F8FFEE700235FF0B0
:10210000FF3200212D480068FFF70DFD4FF480419C
:10211000284800F0D7F80020019003200090002309
:1021200040F6B83228492948FEF72EF8E6E700B510
:1021300083B0FFF740FF032200210120FFF70AFBD5
:102140001E4908601D480068002806D000230022B0
:1021500000211A480068FFF743FB18480068002870
:1021600004D04FF40051134800F0ACF8FFF73DFFE6
:1021700012480068002817D000200190012000902C
:10218000002340F6B83212491248FDF7FDFF002047
:10219000019003200090002340F6B8320A490B4812
:1021A000FDF7F2FFFEF76EF9FEE7000018ED00E024
:1021B00000E400E0000C0240000001404C2D012032
:1021C000502D012004ED00E05C280008C12000082B
:1021D00064280008D7200008C9B2002905D00D4A9C
:1021E000126802430B4B1A6004E00A4A12688243E9
:1021F000084B1A607047C9B2002905D0064A126818
:102200000243054B1A6004E0034A12688243024B02
:102210001A6070473038024044380240F0B400225F
:10222000002300240025102D4AD20122AA401300C9
:102230000A681A4014009C4240D1066803272A000D
:10224000D2B252009740BE43066006680F792A005A
:10225000D2B2520097403E4306600A79012A02D06A
:102260000A79022A1AD1866803272A00D2B25200BC
:102270009740BE43866086684F792A00D2B25200EA
:1022800097403E43866042680126AE40B2434260BA
:1022900042688E79AE40B6B232434260C6680327C8
:1022A0002A00D2B252009740BE43C660C668CF79BA
:1022B0002A00D2B2520097403E43C6606D1CB2E77E
:1022C000F0BC7047426989B24A40426170470000E1
:1022D00010B4002203882E4CA0420ED0324A904205
:1022E0000BD0B0F1804F08D02A4A904205D02A4A3C
:1022F000904202D0294A904204D14FF68F72134087
:102300004A881343264A904207D0264A904204D076
:102310004FF6FF4213400A89134303804A68C262A2
:102320000A8802851A4A904202D01F4A904201D17F
:102330008A7A02860122828210BC7047C9B20029C3
:1023400004D0028852F00202028004E003884FF6B3
:10235000FD7213400380704789B2002904D00288BF
:1023600052F00402028004E003884FF6FB7213402F
:1023700003807047C9B2002904D0028852F00102DC
:10238000028004E003884FF6FE721340038070471A
:10239000000001400004004000080040000C004024
:1023A000001000400014004000040140D2B2002A96
:1023B00003D083890B43838102E083898B4383812C
:1023C000704789B2CA43028270470000F0B400220D
:1023D00000230F24C178002920D01649096811F480
:1023E000E061D1F5E061090AD1F104052B00E4B206
:1023F0000C4145789D408678264035432D012A00C2
:102400000D4D0678AA550125067816F01F06B54031
:102410000A4E07787F1146F8275009E00121057818
:1024200015F01F05A940064D0678761145F82610CF
:10243000F0BC70470CED00E000E400E000E100E0DB
:1024400080E100E080B55148006850F470004F49C9
:1024500008604F48006850F001004D4908600020B6
:102460004C4908604A4801684B48014048480160AF
:102470004A484B4908604648006830F48020444987
:10248000086000204749086000F005F85FF0006030
:102490004549086001BD82B00020019000200090F5
:1024A0003B48006850F4803039490860384800687B
:1024B00010F4003000900198401C01900098002812
:1024C00003D10198B0F5A06FF0D1314800688003C6
:1024D00002D50120009001E0002000900098012822
:1024E0003ED13248006850F0805030490860304892
:1024F000006850F440402E4908602648006825498D
:1025000008602448006850F40040224908602148CF
:10251000006850F4A0501F49086026482049086010
:102520001B48006850F0807019490860184800681E
:102530008001FBD540F205601F490860154800681E
:1025400080088000134908601248006850F00200BB
:10255000104908600F48006810F00C000828F9D1F5
:102560000C48006830F400000A4908601348144918
:1025700008600748006850F080600549086004481A
:1025800000680001FBD502B07047000088ED00E054
:102590000038024008380240FFFFF6FE10300024E9
:1025A000043802400C38024008ED00E04038024098
:1025B0000070004008544007003C0240806A004020
:1025C00084380240014880470148004745240008FC
:1025D00051280008FFF7FEBFFFF7FEBFFFF7FEBF61
:1025E000FFF7FEBFFFF7FEBFFFF7FEBFFFF7FEBF1F
:1025F000FFF7FEBFFFF7FEBFFFF7FEBFFFF7FEBF0F
:10260000FFF7FEBFFFF7FEBFFFF7FEBFFFF7FEBFFE
:10261000FFF7FEBFFFF7FEBFFFF7FEBFFFF7FEBFEE
:10262000FFF7FEBFFFF7FEBFFFF7FEBFFFF7FEBFDE
:10263000FFF7FEBFFFF7FEBFFFF7FEBFFFF7FEBFCE
:10264000FFF7FEBFFFF7FEBFFFF7FEBFFFF7FEBFBE
:10265000FFF7FEBFFFF7FEBFFFF7FEBFFFF7FEBFAE
:10266000FFF7FEBFFFF7FEBFFFF7FEBFFFF7FEBF9E
:10267000FFF7FEBFFFF7FEBFFFF7FEBFFFF7FEBF8E
:10268000FFF7FEBFFFF7FEBFFFF7FEBFFFF7FEBF7E
:10269000FFF7FEBFFFF7FEBFFFF7FEBFFFF7FEBF6E
:1026A000FFF7FEBFFFF7FEBFFFF7FEBFFFF7FEBF5E
:1026B000FFF7FEBFFFF7FEBFFFF7FEBFFFF7FEBF4E
:1026C000FFF7FEBFFFF7FEBFFFF7FEBFFFF7FEBF3E
:1026D000FFF7FEBFFFF7FEBFFFF7FEBFFFF7FEBF2E
:1026E000FFF7FEBFFFF7FEBFFFF7FEBFFFF7FEBF1E
:1026F000FFF7FEBFFFF7FEBFFFF7FEBFFFF7FEBF0E
:10270000FFF7FEBFFFF7FEBFFFF7FEBFFFF7FEBFFD
:10271000FFF7FEBFFFF7FEBFFFF7FEBFFFF7FEBFED
:10272000FFF7FEBFFFF7FEBFFFF7FEBFFFF7FEBFDD
:1027300019E050F8042BD30744BFA9F101039A18FC
:10274000091F0023042942F8043BF9D25FEA817C87
:10275000134604D54FF0000CA2F800C09B1CC9071B
:1027600044BF0021197050F8041B0029E1D17047C3
:1027700010B450F8041B79B1026843680244083071
:10278000DC0744BFA9F10104E31852F8044B43F8F5
:10279000044B091FF9D1ECE710BC704710B507498D
:1027A00079441831064C7C44163404E00A68081D4C
:1027B000114488470146A142F8D110BD2C00000009
:1027C0004C0000004EF68851CEF20001086840F43B
:1027D00070000860BFF34F8FBFF36F8F4FF0007032
:1027E000E1EE100A7047000049FFFFFFA42D010031
:1027F000080000200000000079FFFFFF0800000033
:1028000088000000000000200000000000F00BF82D
:10281000002801D0FFF7C2FF0020AFF30080FFF7D0
:1028200086FC00F002F80120704700F001B80000BB
:102830000746384600F002F8FBE7000080B5AFF32A
:102840000080024A11001820ABBEFBE72600020000
:10285000AFF30080FFF7B6FFFFF7D8FF41414141DA
:102860004100000048616E646C65720049444C454B
:1028700000000000546D722053766300546D725155
:1028800000000000F0E300E0F82B0100AAAAAAAAC9
:040000050800285176
:00000001FF
