:020000040800F2
:1000000008200020412300089123000895230008C0
:10001000992300089D230008A12300080000000088
:10002000000000000000000000000000851600082D
:10003000A9230008000000002D1600082311000865
:10004000B5230008B9230008BD230008C123000818
:10005000C5230008C9230008CD230008D1230008C8
:10006000D5230008D9230008DD230008E123000878
:10007000E5230008E9230008ED230008F123000828
:10008000F5230008F9230008FD23000801240008D7
:1000900005240008092400080D2400081124000884
:1000A00015240008192400081D2400082124000834
:1000B00025240008292400082D24000831240008E4
:1000C00035240008392400083D2400084124000894
:1000D00045240008492400084D2400085124000844
:1000E00055240008592400085D24000861240008F4
:1000F00065240008692400086D24000871240008A4
:1001000075240008792400087D2400088124000853
:1001100085240008892400088D2400089124000803
:1001200095240008992400089D240008A1240008B3
:10013000A5240008A9240008AD240008B124000863
:10014000B5240008B9240008BD240008C124000813
:10015000C5240008C9240008CD240008D1240008C3
:10016000D5240008D9240008DD240008E124000873
:10017000E5240008E9240008ED240008F124000823
:10018000F5240008F92400082DE9F04F85B004009B
:100190000D0016001F00DDF83880DDF83C90B6B287
:1001A000B00000F02EFE8346BBF1000F0DD05820AA
:1001B00000F027FE8246BAF1000F02D0CAF830B034
:1001C00005E0584600F053FE01E000208246BAF1F7
:1001D000000F14D000200390CDF808A0CDF80490B3
:1001E000CDF800803B00B6B232002900200000F0BC
:1001F0000DF8504600F078F80120049002E05FF01E
:10020000FF300490049805B0BDE8F08F2DE9F94F58
:1002100083B00C0015000E9E0F9FDDF84080A800F3
:100220000190A5200090D8F830B0009A0199584666
:1002300000F030FED8F8300010EB8500001F81463A
:100240005FEAD9095FEAC90919F00700002807D059
:10025000502080F31188BFF34F8FBFF36F8FFEE7FD
:1002600000208246BAF10A0F0CD21AF804001AEBE9
:10027000080181F834001AF80400002802D01AF1AD
:10028000010AEFE7002088F83D00052E01D3042085
:100290000600C8F82C60C8F848600020C8F84C0078
:1002A00018F1040000F038FE18F1180000F034FED8
:1002B000C8F81080D6F10500C8F81800C8F82480E6
:1002C0000020C8F85000002088F85400049A0399D0
:1002D000484600F061FEC8F80000002F01D0C7F8C2
:1002E000008005B0BDE8F08F10B5040000F0E3FE1B
:1002F000DFF898050068401CDFF890150860DFF80B
:100300009005006800280AD1DFF884050460DFF852
:100310007C050068012811D100F0AAFB0EE0DFF88F
:1003200074050068002809D1E06ADFF864150968DF
:10033000C96A884202D3DFF858050460DFF89805DF
:100340000068401CDFF890150860DFF88C05006835
:100350002064DFF8880500680121E26A91400843C3
:10036000DFF878150860211DDFF87405E26A1423B0
:1003700003FB020000F0D3FD00F0BAFEDFF8140525
:10038000006800280FD0DFF808050068C06AE16A3D
:10039000884208D25FF08050DFF898160860BFF3FB
:1003A0004F8FBFF36F8F10BD38B504000025002CB0
:1003B00015D0DFF8BC050068002807D0502080F376
:1003C0001188BFF34F8FBFF36F8FFEE700F0EAF89D
:1003D0000021200000F0B2FC00F0ECF80500002D38
:1003E00008D15FF08050DFF84C160860BFF34F8FE4
:1003F000BFF36F8F31BD70B5040000F05CFE002CC0
:1004000003D1DFF88C04056800E02500E86A0600E7
:1004100000F06EFE300070BD2DE9F84304000D00C1
:100420005FF00008052D07D3502080F31188BFF33B
:100430004F8FBFF36F8FFEE7052D01D3042005001A
:1004400000F039FE002C04D1DFF84404D0F800900D
:1004500000E0A146D9F848000600AE4265D0AE42A1
:100460000DD2DFF82C04006881450FD0DFF820049E
:100470000068C06A854209D30120804606E0DFF8A3
:1004800010040068814501D101208046D9F82C0074
:100490000700D9F84800D9F82C10884201D1C9F8D2
:1004A0002C50C9F84850D9F81800002803D4D5F1C9
:1004B0000500C9F81800D9F81400DFF82414142234
:1004C00002FB0711884224D119F1040000F050FD0D
:1004D000002808D1DFF8040400680121B9408843EE
:1004E000DFF8F8130860DFF8F40300680121D9F899
:1004F0002C2091400843DFF8E413086019F104014F
:10050000DFF8DC03D9F82C20142303FB020000F0F1
:1005100006FDB8F1000F08D05FF08050DFF87416C8
:100520000860BFF34F8FBFF36F8F00F0E1FDBDE8B0
:10053000F1831CB5DFF8E407019000200090002350
:100540008222DFF8E0170FF2F540FFF71DFE0400EE
:10055000012C02D100F04CFE0400012C16D15020D9
:1005600080F31188BFF34F8FBFF36F8F5FF0FF30C1
:10057000DFF8B41708600120DFF8181308600020C6
:10058000DFF81814086000F030FD0AE014F1010FE4
:1005900007D1502080F31188BFF34F8FBFF36F8FC7
:1005A000FEE713BDDFF8C8030068401CDFF8C01386
:1005B0000860704770B500240025DFF8B4030068B8
:1005C000002807D1502080F31188BFF34F8FBFF36D
:1005D0006F8FFEE700F06FFDDFF894030068401EA8
:1005E000DFF88C130860DFF88803006800285CD10E
:1005F000DFF898020068002857D0DFF82407006869
:1006000000282AD0DFF81807C068C068040014F179
:10061000180000F0ADFC201D00F0AAFCDFF8BC02C1
:1006200000680121E26A91400843DFF8B0120860D7
:10063000211DDFF8AC02E26A142303FB020000F084
:100640006EFCE06ADFF848120968C96A8842D4D3B0
:100650000120DFF8DC160860CFE7002C01D000F0A5
:1006600070FADFF8C8060668002E0ED000F026F8F3
:10067000002803D00120DFF8B8160860761E002E8F
:10068000F4D10020DFF8A4160860DFF8A4060068A3
:1006900000280AD0012005005FF08050DFF8941395
:1006A0000860BFF34F8FBFF36F8F00F021FD28006C
:1006B00070BDDFF8E8120968080070472DE9F041C5
:1006C0000026DFF8AC02006800287CD1DFF8CC02FD
:1006D0000068471CDFF8C4020760002F24D1DFF850
:1006E000880300680068002807D0502080F3118834
:1006F000BFF34F8FBFF36F8FFEE7DFF86C03006827
:100700008046DFF868030068DFF85C130860DFF8F4
:100710005C03C0F80080DFF81C060068401CDFF8AE
:100720001416086000F00DFADFF8FC050068874237
:100730003CD3DFF8340300680068002805D15FF07F
:10074000FF30DFF8E415086030E0DFF81C030068D4
:10075000C068C068040060680500AF4203D2DFF8DB
:10076000C805056022E0201D00F002FCA06A0028F8
:1007700003D014F1180000F0FBFB58480068012179
:10078000E26A9140084355490860211D5448E26AD5
:10079000142303FB020000F0C2FBE06A3C49096835
:1007A000C96A8842C5D301200600C2E74C483849CF
:1007B0000968C96A142202FB01000068022809D3F3
:1007C0000120060006E0DFF864050068401CDFF841
:1007D0005C150860DFF858050068002801D001208A
:1007E00006003000BDE8F08161480068002804D0B0
:1007F0000120DFF83C1508602DE00020DFF83015FF
:10080000086036490968B1FA81F1D1F11F01080089
:100810003349142202FB00110968002907D1502135
:1008200081F31188BFF34F8FBFF36F8FFEE72C4A20
:10083000142303FB002211004A6852684A604A6888
:1008400011F108039A4202D14A6852684A60496825
:10085000C9680F4A1160704738B504000D00002CBC
:1008600007D1502080F31188BFF34F8FBFF36F8FF4
:10087000FEE7DFF84C05006810F11801200000F0D9
:100880005AFB0121280000F059FA31BD584D0120D2
:10089000484D0120644D012070B504000D00160084
:1008A000002C07D1502080F31188BFF34F8FBFF386
:1008B0006F8FFEE7DFF80805006810F118012000CF
:1008C00000F02DFB002E02D05FF0FF30050031005C
:1008D000280000F033FA70BD744D0120604D0120F6
:1008E000084C012070B50400E068C0680500002DC8
:1008F00007D1502080F31188BFF34F8FBFF36F8F64
:10090000FEE715F1180000F033FB194800680028D5
:1009100016D1281D00F02CFBDFF8A8040068012187
:10092000EA6A91400843DFF89C140860291DDFF84B
:100930009804EA6A142303FB020000F0F0FA05E0D1
:1009400015F11801DFF8D80300F0E9FADFF87004B8
:100950000068C06AE96A884206D2012006000120C8
:10096000DFF8D413086001E000200600300070BDFD
:10097000804D0120002807D1502181F31188BFF359
:100980004F8FBFF36F8FFEE7DFF8A8130968016090
:10099000DFF8381409684160704700005C4D0120A1
:1009A000F8B504000D00002C07D1502080F3118809
:1009B000BFF34F8FBFF36F8FFEE7002D07D150209D
:1009C00080F31188BFF34F8FBFF36F8FFEE700F006
:1009D00072FBDFF8F8030768286810F1010F02D1F5
:1009E000002006001DE0DFF84C0300682168884203
:1009F00005D06068874202D30120060011E06068DC
:100A0000381A296888420AD22868C01B6168081809
:100A100028602000FFF7AEFF0020060001E0012063
:100A2000060000F065FB3000F2BD0120DFF808137E
:100A30000860704704ED00E07047000010B5040046
:100A400000F043F8DFF880030068022808D35FF065
:100A50008050DFF87C130860BFF34F8FBFF36F8FB8
:100A6000FFF7EAFFECE700004C4D0120504D01205C
:100A700010B500200400052C08D2DFF84C03142127
:100A800001FB040000F039FA641CF4E7DFF84403CA
:100A900000F033FADFF8400300F02FFADFF88002AD
:100AA00000F02BFADFF8340300F027FADFF8300308
:100AB00000F023FADFF81C03DFF828130860DFF8E2
:100AC0001803DFF82413086010BD38B5DFF81C03E5
:100AD000006800282BD0FFF765FDDFF800030068F1
:100AE000002801D1012400E00024FFF763FD002C61
:100AF000ECD100F0E0FADFF8E402C068C06805005D
:100B0000281D00F035FADFF8E8020068401EDFF823
:100B1000E0120860DFF8D4020068401EDFF8CC1253
:100B2000086000F0E5FA280000F002F8CEE731BDD9
:100B300010B50400206B00F09AF9200000F097F93E
:100B400010BDDFF8A01209680968002904D15FF020
:100B5000FF31754A116008E0DFF888120968C9683A
:100B6000C96808004168704A11607047DFF8841254
:100B70000968002902D10121080009E0DFF8781294
:100B80000968002902D10221080001E000210800C3
:100B90007047000004ED00E038B504002500002C8B
:100BA0004FD0E86ADFF818120968C96A884248D24B
:100BB000A869002806D4DFF808020068C06AD0F1EE
:100BC0000500A8616869DFF80012EA6A142303FBD4
:100BD0000211884230D1281D00F0CAF9002812D134
:100BE000DFF8E401E96A142202FB01000068002832
:100BF00009D1DFF8D00100680121EA6A91408843F9
:100C0000DFF8C0110860DFF8B8010068C06AE86268
:100C1000DFF8B00100680121EA6A91400843DFF87B
:100C2000A4110860291DDFF8A001EA6A142303FB60
:100C3000020000F074F904E0DFF884010068C06A83
:100C4000E86231BD70B5040025000026002C54D0A8
:100C5000DFF86C010068854207D0502080F31188CE
:100C6000BFF34F8FBFF36F8FFEE7E86C002807D10B
:100C7000502080F31188BFF34F8FBFF36F8FFEE7D3
:100C8000E86C401EE864E86AA96C884235D0E86CDC
:100C9000002832D1281D00F06BF9002812D1DFF8AE
:100CA0002801E96A142202FB01000068002809D12A
:100CB000DFF8100100680121EA6A91408843DFF8FB
:100CC00004110860A86CE862E86AD0F10500A86128
:100CD000DFF8F00000680121EA6A91400843DFF87C
:100CE000E4100860291DDFF8E000EA6A142303FB22
:100CF000020000F014F901200600300070BDDFF89A
:100D0000C0000068002805D0DFF8B4000068C16C9E
:100D1000491CC164DFF8A800006870477C4D0120C1
:100D2000D44C01206C230008784D0120684D01202F
:100D30006C4D0120704D01206C4D0120F8B5040070
:100D40000D00224807681E480068001D00F010F9D9
:100D500000280BD11A4800681A4909680122C06AA4
:100D600012FA00F031EA00001649086014F1010F90
:100D700008D1002D06D012480068011D184800F067
:100D8000CEF81BE0E01906000D4800684660BE4240
:100D900007D20B480068011D1348006800F0CBF82B
:100DA0000CE007480068011D0E48006800F0C3F819
:100DB00012480068864201D210480660F1BD00006A
:100DC000484D0120604D0120084C01205C4D012060
:100DD00004ED00E0AC4C0120C04C0120E84C0120A7
:100DE000FC4C01204C4D0120504D0120544D012060
:100DF000584D0120644D0120804D0120784D012087
:100E0000704738B50500002415F0070F04D015F120
:100E1000080015F00701451AFFF7C4FB19480068E0
:100E2000002804D11848C008C000164908601748B7
:100E3000006828181649884211D2144800681349DE
:100E40000968691888420AD20E4800680F49096883
:100E5000081804000D48006828180C490860FFF7BE
:100E6000A9FB002C01D1FFF7CBFF200032BD0028E9
:100E700007D0502181F31188BFF34F8FBFF36F8FDD
:100E8000FEE770473C4D012010200020384D012026
:100E9000F82B010062F30F2262F31F42401810F09A
:100EA000030308D0C91A1FD3DB0748BF00F8012D80
:100EB00028BF20F8022D130030B41446154610390F
:100EC00028BF20E93C00FAD8490728BF20E90C00D8
:100ED00048BF40F8042D890028BF20F8022D48BFE4
:100EE00000F8012D30BC7047C91818BF00F8012D5B
:100EF000CB0728BF00F8012D704710F108014160B1
:100F00005FF0FF31816010F10801C16010F108014C
:100F10000161002101607047002101617047426852
:100F20004A6093688B6093685960916008610368B8
:100F30005B1C0360704710B40B6813F1010F02D102
:100F40000469220008E010F10804220054682468B3
:100F5000A34201D35268F9E754684C604C68A16021
:100F60008A60516008610468641C046010BC7047AA
:100F7000010008698A684B689A604A688B685A6001
:100F800042688A4201D18A68426000220A6102688E
:100F9000521E026000687047001F5FF0807303609C
:100FA000001F4B085B000360001F0FF21503036076
:100FB00014380260001F7FF002030360203870477E
:100FC0007C48006810F1010F07D0502080F3118891
:100FD000BFF34F8FBFF36F8FFEE7502080F3118870
:100FE000BFF34F8FBFF36F8FFEE700B583B072483A
:100FF00000687249884207D1502080F31188BFF3FE
:101000004F8FBFF36F8FFEE76B4800686C498842D3
:1010100007D1502080F31188BFF34F8FBFF36F8F3C
:10102000FEE7684801780191FF21017001788DF891
:1010300000109DF8001011F05001634A1170072153
:10104000624A11609DF8001009060AD55F490968D7
:10105000491E5E4A11609DF8001049008DF800108D
:10106000F0E75A4909680902584A11605749096866
:1010700011F4E061554A116001990170544800680B
:1010800050F47000524908605148006850F07040B8
:101090004F49086000F059F800204649086000F008
:1010A0000BFB4C48006850F040404A49086000F093
:1010B000F7FA00200EBD502080F31188BFF34F8F48
:1010C000BFF36F8F3B480068401C3A4908603948BD
:1010D000006801280BD140480068000607D0502066
:1010E00080F31188BFF34F8FBFF36F8FFEE7704718
:1010F00030480068002807D1502080F31188BFF3E2
:101100004F8FBFF36F8FFEE72A480068401E2949C2
:10111000086028480068002802D1002080F3118868
:10112000704780B5502080F31188BFF34F8FBFF315
:101130006F8FFFF7C3FA002803D05FF08050264975
:101140000860002080F3118801BD244800684FF436
:101150007A71B0FBF1F0401E214908600720214957
:1011600008607047EFF305821000102810D31E4A64
:101170001268825C1100144A1278C9B2914207D2F7
:10118000502282F31188BFF34F8FBFF36F8FFEE7BA
:101190000E4A1268154B1B6813F4E0639A4207D29B
:1011A000502282F31188BFF34F8FBFF36F8FFEE79A
:1011B000704700000000002000ED00E071C20F4108
:1011C00070C20F4100E400E0984D0120444D012021
:1011D00020ED00E034EF00E004ED00E0040000202A
:1011E00014E000E010E000E08C2300080CED00E0CB
:1011F0001CB5002400F0DFF9DFF8080400680028BF
:101200000ED0DFF8040401900220009000234FF478
:101210008272DFF8F8130FF20110FEF7B5FF040039
:10122000002C07D1502080F31188BFF34F8FBFF3FC
:101230006F8FFEE7200016BD2DE9FE4304000D0070
:1012400016001F00DDF828805FF00009002C07D190
:10125000502080F31188BFF34F8FBFF36F8FFEE7ED
:10126000DFF8A0030068002825D0009501960294BD
:10127000062D17DAFFF77AFC022809D1002342462F
:101280006946DFF88003006800F0B5FA814612E095
:10129000002300226946DFF86C03006800F0ABFA17
:1012A000814608E000233A006946DFF858030068E9
:1012B00000F07AFB81464846BDE8FE83F8B504009D
:1012C0000D00DFF84C030068C068C768381DFFF7E1
:1012D0004FFEF86901281BD123002A00B8690119C3
:1012E000380000F089F8002812D000200090002378
:1012F000220000213800FFF79FFF0600002E07D1D3
:10130000502080F31188BFF34F8FBFF36F8FFEE73C
:101310003800796A8847F1BD38B50400684600F0A6
:1013200040F805000099280000F003F800F08CF860
:10133000F4E770B582B004000E00FFF733F9684699
:1013400000F046F805000098002827D1002E08D1AB
:10135000A54206D3FFF72EF929002000FFF7AEFFC4
:101360001EE0002E07D0AB4800680068002801D1BD
:10137000012600E000263200611BA248006800F050
:101380004DFDFFF717F900280AD15FF08050A24900
:101390000860BFF34F8FBFF36F8F01E0FFF70AF9CB
:1013A00073BD01009A4A12681268002A01D1012215
:1013B00000E00022D2B20A600A68002A05D1944AED
:1013C0001268D2681268100001E000221000704715
:1013D00038B50400FFF76DF90500904800688542B4
:1013E00004D200F0A0F80120206001E0002020607D
:1013F0008A480560280032BD2DE9F04104000D0047
:1014000016001F005FF0000865602461AE420CD337
:10141000F01BA169884202D30120804611E0211D02
:101420007C480068FFF787FD0BE0BE4204D2BD4256
:1014300002D30120804604E0211D75480068FFF7B3
:101440007AFD4046BDE8F08170B586B000230022E9
:1014500001A96C48006800F01EFB002861D00198CB
:101460000028F3D4039804006069002802D0201DEE
:10147000FFF77EFD04A8FFF7ABFF060001980028E8
:101480000ED002280CD00BD3042830D02ED306283F
:1014900006D041D3082829D002D3092827D03FE01D
:1014A000029B32000298A16909182000FFF7A4FFEF
:1014B00000281AD02000616A8847E069012814D109
:1014C0000020009000230298A1690A180021200042
:1014D000FFF7B2FE0500002D07D1502080F31188E0
:1014E000BFF34F8FBFF36F8FFEE7AFE7AEE7029812
:1014F000A061A069002807D1502080F31188BFF3B4
:101500004F8FBFF36F8FFEE733003200A069811960
:101510002000FFF771FF99E72000FFF7A8FC95E78F
:1015200094E706B070BD2DE9F04182B038480068FC
:101530000068002834D036480068C068006804009D
:1015400033480068C068C0680700381DFFF710FD09
:101550003800796A8847F8690128E7D1B869001925
:101560000500AC4207D27D603F61391D2848006804
:10157000FFF7E1FCDAE700200090002322000021C1
:101580003800FFF759FE8046B8F1000F07D1502010
:1015900080F31188BFF34F8FBFF36F8FFEE7C5E76E
:1015A0001B48006806001B48006819490860194874
:1015B0000660BDE8F38180B5FFF77DFD1148006846
:1015C00000281BD11648FFF798FC1648FFF795FC3A
:1015D00013480F49086013480E49086000220C2187
:1015E0000A2000F0C1F80749086006480068002892
:1015F00004D00D490348006800F0F8FBFFF778FDC0
:1016000001BD00008C4D0120904D01207423000885
:10161000844D0120884D012004ED00E0944D01200F
:10162000104D0120244D01207C230008EFF3098098
:10163000BFF36F8F244B1A681EF0100F08BF20ED08
:10164000108A20E9F04F106008B44FF0500080F38A
:101650001188BFF34F8FBFF36F8FFFF7C5F84FF0BF
:10166000000080F3118808BC19680868B0E8F04FE2
:101670001EF0100F08BFB0EC108A80F30988BFF38A
:101680006F8F7047104B19680868B0E8F04F80F30F
:101690000988BFF36F8F4FF0000080F31188704707
:1016A0000A480068006880F3088862B661B6BFF334
:1016B0004F8FBFF36F8F00DFDFF81400016841F434
:1016C0007001016070470000484D012008ED00E006
:1016D00088ED00E070B504000D002600002E07D153
:1016E000502080F31188BFF34F8FBFF36F8FFEE759
:1016F000FFF7E1FC3068F16B326C02FB01007060B7
:101700000020B0633068B0603068F16B491E326C05
:1017100002FB0100F0605FF0FF3086F844005FF0EC
:10172000FF3086F84500002D12D13069002817D00F
:1017300016F11000FFF7D6F8002811D05FF08050A6
:10174000DFF8D0160860BFF34F8FBFF36F8F07E04D
:1017500016F11000FFF7D1FB16F12400FFF7CDFBC7
:10176000FFF7C6FC012070BD2DE9F84304000D0011
:101770001600002C07D1502080F31188BFF34F8F43
:10178000BFF36F8FFEE7002D02D10020804602E0FC
:1017900005FB04F0804618F15000FFF732FB07000C
:1017A000002F0AD017F15000814600973300DBB2BA
:1017B0004A462900200000F003F83800BDE8F28313
:1017C0002DE9F04104000D0016001F00DDF818801F
:1017D000002D02D1C8F8008001E0C8F80060C8F808
:1017E0003C40C8F8405001214046FFF773FF88F89D
:1017F0004C70BDE8F0812DE9F74304000D001E0098
:101800005FF00008A146B9F1000F07D1502080F326
:101810001188BFF34F8FBFF36F8FFEE7002D03D109
:10182000D9F84000002801D1012000E00020C0B21A
:10183000002807D1502080F31188BFF34F8FBFF3EA
:101840006F8FFEE7022E03D1D9F83C00012801D1A9
:10185000012000E00020C0B2002807D1502080F312
:101860001188BFF34F8FBFF36F8FFEE7FFF77EF94D
:10187000002802D10298002801D1012000E00020B8
:10188000C0B2002807D1502080F31188BFF34F8FDA
:10189000BFF36F8FFEE7FFF70EFCD9F83800D9F8D9
:1018A0003C10884201D3022E28D13200290048463C
:1018B00000F0DFF90700D9F8240000280FD019F153
:1018C0002400FFF70FF8002814D05FF08050DFF8F5
:1018D00044150860BFF34F8FBFF36F8F0AE0002FEE
:1018E00008D05FF08050DFF82C150860BFF34F8FF1
:1018F000BFF36F8FFFF7FCFB012053E00298002835
:1019000003D1FFF7F5FB00204CE0B8F1000F04D144
:101910006846FFF72FF801208046FFF7E9FBFEF746
:1019200041FEFFF7C8FB99F9440010F1010F02D105
:10193000002089F8440099F9450010F1010F02D107
:10194000002089F84500FFF7D3FB02A96846FFF79E
:1019500027F8002820D1484600F037FA002815D093
:10196000029919F11000FEF777FF484600F0E6F9FA
:10197000FEF720FE00288ED15FF08050DFF894142F
:101980000860BFF34F8FBFF36F8F84E7484600F0C6
:10199000D5F9FEF70FFE7EE7484600F0CFF9FEF7D7
:1019A00009FE0020BDE8FE832DE9F84F04000D007C
:1019B00016001F00A246BAF1000F07D1502080F395
:1019C0001188BFF34F8FBFF36F8FFEE7002D03D158
:1019D000DAF84000002801D1012000E00020C0B268
:1019E000002807D1502080F31188BFF34F8FBFF339
:1019F0006F8FFEE7022F03D1DAF83C00012801D1F6
:101A0000012000E00020C0B2002807D1502080F360
:101A10001188BFF34F8FBFF36F8FFEE7FFF7A2FB75
:101A2000EFF311808146502080F31188BFF34F8F70
:101A3000BFF36F8FDAF83800DAF83C10884201D330
:101A4000022F21D19AF945B03A002900504600F002
:101A500010F94FFA8BFB1BF1010F0ED1DAF82400BD
:101A600000280ED01AF12400FEF73CFF002808D011
:101A7000002E06D00120306003E01BF101008AF83F
:101A800045000120804601E00020804689F311884E
:101A90004046BDE8F28F2DE9F44783B004000D0005
:101AA0001E000027A146B9F1000F07D1502080F396
:101AB0001188BFF34F8FBFF36F8FFEE7002D03D167
:101AC000D9F84000002801D1012000E00020C0B278
:101AD000002807D1502080F31188BFF34F8FBFF348
:101AE0006F8FFEE7FFF742F8002802D10398002825
:101AF00001D1012000E00020C0B2002807D1502011
:101B000080F31188BFF34F8FBFF36F8FFEE7FFF7AE
:101B1000D2FAD9F838A0BAF1000F41D0D9F80C00A8
:101B200080462900484600F0F1F8002E1FD1BAF196
:101B30000100C9F83800D9F80000002803D1FFF7E8
:101B4000DEF8C9F80400D9F81000002824D019F1F3
:101B50001000FEF7C7FE00281ED05FF08050DFF8AF
:101B6000B4120860BFF34F8FBFF36F8F14E0C9F852
:101B70000C80D9F8240000280ED019F12400FEF7BB
:101B8000B1FE002808D05FF08050DFF888120860AE
:101B9000BFF34F8FBFF36F8FFFF7AAFA012065E005
:101BA0000398002803D1FFF7A3FA00205EE0002F7E
:101BB00004D16846FEF7DEFE01200700FFF798FA21
:101BC000FEF7F0FCFFF777FA99F9440010F1010FE6
:101BD00002D1002089F8440099F9450010F1010F65
:101BE00002D1002089F84500FFF782FA03A9684670
:101BF000FEF7D6FE00282DD1484600F0D6F8002882
:101C000022D0D9F80000002807D1FFF754FAD9F8FC
:101C10000400FEF7C1FFFFF76BFA039919F12400E6
:101C2000FEF71AFE484600F089F8FEF7C3FC0028CC
:101C30007FF46DAF5FF08050DFF8D8110860BFF31C
:101C40004F8FBFF36F8F62E7484600F077F8FEF7DB
:101C5000B1FC5CE7484600F071F8FEF7ABFC484683
:101C600000F0A3F800283FF452AF002004B0BDE814
:101C7000F0872DE9F04704000D0016000027A06B47
:101C80008046206C002809D12068002838D160687F
:101C9000FEF7D8FF07000020606031E0002E13D16E
:101CA000D4F84090D4F808A04A462900504600F0E5
:101CB000DBF8A068216C0818A060A0686168884201
:101CC0001ED32068A0601BE0D4F84090D4F80CA08C
:101CD0004A462900504600F0C7F8E068216C401AD7
:101CE000E060E0682168884203D26068216C401A95
:101CF000E060022E04D1B8F1000F01D0B8F1010864
:101D000018F10100A0633800BDE8F087F8B50400C1
:101D10000D00206C002810D0E068216C0818E060ED
:101D2000E0686168884201D32068E060266CE7685B
:101D300032003900280000F097F8F1BD70B50400BA
:101D4000FFF7B9F994F945506DB2012D0CDB606ACB
:101D5000002809D014F12400FEF7C4FD002801D0AA
:101D6000FEF763FE6D1EEFE75FF0FF3084F845007D
:101D7000FFF7BEF9FFF79FF994F9446076B2012EA0
:101D80000CDB2069002809D014F11000FEF7AAFD31
:101D9000002801D0FEF749FE761EEFE75FF0FF3026
:101DA00084F84400FFF7A4F970BD38B50400FFF7CC
:101DB00082F9A06B002802D10120050001E000207B
:101DC0000500FFF795F9280032BD38B50400FFF78C
:101DD00072F9A06BE16B884202D10120050001E09D
:101DE00000200500FFF784F9280032BD00231A0007
:101DF000082A0ED2084B53F83230002B07D1064B7D
:101E000043F83210044B13EBC203586001E0521C3C
:101E1000EEE7704704ED00E06C4C0120F8B50400DB
:101E20000D0016002700FFF746F997F9440010F15E
:101E3000010F02D1002087F8440097F9450010F106
:101E4000010F02D1002087F84500FFF751F9B86B68
:101E5000002805D13200290017F12400FEF71CFDEF
:101E60003800FFF76BFFF1BD62B38B0708D0521E3D
:101E700011F8013B00F8013B00F024808B07F6D1FC
:101E8000830740F0208000BF103A07D330B4B1E898
:101E90003810103AA0E83810F9D230BC530724BFEC
:101EA000B1E80810A0E8081044BF51F8043B40F81E
:101EB000043BD20724BF31F8022B20F8022B44BF89
:101EC0000B7803707047083A07D3B1E80810083A56
:101ED00040F8043B40F804CBF7D25307E4E7000096
:101EE00080B55248006850F470005049086050486E
:101EF000006850F001004E49086000204D4908601C
:101F00004B4800684C490840494908604B484C49D7
:101F100008604748006830F4802045490860002088
:101F20004849086000F005F85FF000604649086025
:101F300001BD82B000200190002000903C48006864
:101F400050F480303A4908603948006810F4003095
:101F500000900198401C01900098002803D101983E
:101F6000B0F5A06FF0D132480068800302D501209F
:101F7000009001E0002000900098012802D1334831
:101F80002F4908603248006850F08050304908609E
:101F90003048006850F440402E49086025480068E9
:101FA000244908602348006850F400402149086033
:101FB0002048006850F4A0501E4908601C48006882
:101FC00050F080701A490860194800688001FBD5FC
:101FD0002048006850F480301E4908601E480068A0
:101FE000C003FBD51B48006850F400301949086055
:101FF000194800688003FBD540F205701749086056
:102000000C480068800880000A4908600948006898
:1020100050F00200074908600648006810F00C0004
:102020000828F9D102B070470000000088ED00E0F8
:102030000038024008380240FFFFF6FE103000244E
:10204000043802400C38024008ED00E0085A40070E
:10205000403802400070004004700040003C0240E4
:1020600000B583B00121402000F06CF801208DF80C
:10207000040000208DF806004FF4C04000900020BE
:102080008DF8070002208DF805006946274800F00A
:102090006BF807BD38B504000020FEF7ACF9050069
:1020A0004FF48041214800F0B4F84FF400511F482C
:1020B00000F0B1F8691C1E480068FEF7ADF9322047
:1020C000FEF772F9F1E738B504000020FEF793F946
:1020D00005004FF40051154800F09BF84FF4804183
:1020E000124800F098F8A91E0020FEF795F932205A
:1020F000FEF75AF9F2E700B583B0FFF7B1FF002011
:10210000019002200090002382220A490A48FEF72B
:102110003BF80748019001200090002382220749E4
:102120000748FEF731F8FEF704FAFEE70018024010
:10213000404D01205C23000895200008642300081E
:10214000C7200008C9B2002905D0064A1268024318
:10215000044B1A6004E0034A12688243014B1A6080
:102160007047000030380240F0B400220023002401
:1021700000252A00102A4AD2012595402B000D681F
:102180001D402C009C4240D1056803261700FFB279
:102190007F00BE40B543056005680E791700FFB2A9
:1021A0007F00BE40354305600D79012D02D00D79C9
:1021B000022D1AD1856803261700FFB27F00BE40AA
:1021C000B543856085684E791700FFB27F00BE4039
:1021D00035438560456801269640B54345604568AE
:1021E0008E799640B6B235434560C5680326170020
:1021F000FFB27F00BE40B543C560C568CE79170009
:10220000FFB27F00BE403543C560521CB2E7F0BC50
:10221000704741837047426989B24A4042617047C2
:1022200019E050F8041BCB0744BFA9F1010359186A
:10223000121F0023042A41F8043BF9D25FEA827C92
:102240000B4604D54FF0000CA1F800C09B1CD10731
:1022500044BF0021197050F8042B002AE1D17047C7
:1022600010B450F8041B79B10268436812180830A2
:10227000DC0744BFA9F10104E31852F8044B43F80A
:10228000044B091FF9D1ECE710BC704710B50749A2
:1022900079441831064C7C44163404E00A68081D61
:1022A000511888470146A142F8D110BD2C0000000A
:1022B0004C0000004EF68851CEF20001086840F450
:1022C00070000860BFF34F8FBFF36F8F4FF0007047
:1022D000E1EE100A7047000049FFFFFF942D010056
:1022E000082000200000000079FFFFFF0800000028
:1022F00094000000000000200000000000F00BF837
:10230000002801D0FFF7C2FF0020C046C046FFF7FB
:10231000F2FE00F002F80120704700F001B8000062
:102320000746384600F002F8FBE7000080B5C046DB
:10233000C046024A11001820ABBEFBE7260002008F
:102340000148804701480047E11E0008512300086A
:10235000C046C046FFF7AEFFFFF7D0FF5461736B76
:1023600020310000765461736B32000049444C45C3
:1023700000000000546D722053766300546D72515A
:1023800000000000AAAAAAAA0095BA0AF0E300E099
:10239000FFF7FEBFFFF7FEBFFFF7FEBFFFF7FEBF71
:1023A000FFF7FEBFFFF76EB9FFF7FEBFFFF73EB9BD
:1023B000FEF7B7BEFFF7FEBFFFF7FEBFFFF7FEBF9A
:1023C000FFF7FEBFFFF7FEBFFFF7FEBFFFF7FEBF41
:1023D000FFF7FEBFFFF7FEBFFFF7FEBFFFF7FEBF31
:1023E000FFF7FEBFFFF7FEBFFFF7FEBFFFF7FEBF21
:1023F000FFF7FEBFFFF7FEBFFFF7FEBFFFF7FEBF11
:10240000FFF7FEBFFFF7FEBFFFF7FEBFFFF7FEBF00
:10241000FFF7FEBFFFF7FEBFFFF7FEBFFFF7FEBFF0
:10242000FFF7FEBFFFF7FEBFFFF7FEBFFFF7FEBFE0
:10243000FFF7FEBFFFF7FEBFFFF7FEBFFFF7FEBFD0
:10244000FFF7FEBFFFF7FEBFFFF7FEBFFFF7FEBFC0
:10245000FFF7FEBFFFF7FEBFFFF7FEBFFFF7FEBFB0
:10246000FFF7FEBFFFF7FEBFFFF7FEBFFFF7FEBFA0
:10247000FFF7FEBFFFF7FEBFFFF7FEBFFFF7FEBF90
:10248000FFF7FEBFFFF7FEBFFFF7FEBFFFF7FEBF80
:10249000FFF7FEBFFFF7FEBFFFF7FEBFFFF7FEBF70
:1024A000FFF7FEBFFFF7FEBFFFF7FEBFFFF7FEBF60
:1024B000FFF7FEBFFFF7FEBFFFF7FEBFFFF7FEBF50
:1024C000FFF7FEBFFFF7FEBFFFF7FEBFFFF7FEBF40
:1024D000FFF7FEBFFFF7FEBFFFF7FEBFFFF7FEBF30
:1024E000FFF7FEBFFFF7FEBFFFF7FEBFFFF7FEBF20
:0C24F000FFF7FEBFFFF7FEBFFFF7FEBFC7
:04000005080023517B
:00000001FF
