:020000040800F2
:1000000010200020F51E0008051F0008091F000829
:100010000D1F0008111F0008151F00080000000038
:10002000000000000000000000000000891500082A
:10003000191F0008000000003115000827100008F3
:100040001D1F0008211F0008251F0008291F000888
:100050002D1F0008311F0008351F0008391F000838
:100060003D1F0008411F0008451F0008491F0008E8
:100070004D1F0008511F0008551F0008591F000898
:100080005D1F0008611F0008651F0008691F000848
:100090006D1F0008711F0008751F0008791F0008F8
:1000A0007D1F0008811F0008851F0008891F0008A8
:1000B0008D1F0008911F0008951F0008991F000858
:1000C0009D1F0008A11F0008A51F0008A91F000808
:1000D000AD1F0008B11F0008B51F0008B91F0008B8
:1000E000BD1F0008C11F0008C51F0008C91F000868
:1000F000CD1F0008D11F0008D51F0008D91F000818
:10010000DD1F0008E11F0008E51F0008E91F0008C7
:10011000ED1F0008F11F0008F51F0008F91F000877
:10012000FD1F000801200008052000080920000824
:100130000D200008112000081520000819200008D3
:100140001D20000821200008252000082920000883
:100150002D20000831200008352000083920000833
:100160003D200008412000084520000849200008E3
:100170004D20000851200008552000085920000893
:100180005D200008612000082DE9F04F85B00400D3
:100190000D0016001F00DDF83880DDF83C90B6B287
:1001A000B00000F050FD8346BBF1000F0DD0582089
:1001B00000F049FD8246BAF1000F02D0CAF830B013
:1001C00005E0584600F0A4FD01E000208246BAF1A7
:1001D000000F14D000200390CDF808A0CDF80490B3
:1001E000CDF800803B00B6B232002900200000F0BC
:1001F0000DF8504600F078F80120049002E05FF01E
:10020000FF300490049805B0BDE8F08F2DE9F94F58
:1002100083B00C0015000E9E0F9FDDF84080A800F3
:100220000190A5200090D8F830B0009A0199584666
:1002300000F0B2FDD8F8300010EB8500001F8146B9
:100240005FEAD9095FEAC90919F00700002807D059
:10025000502080F31188BFF34F8FBFF36F8FFEE7FD
:1002600000208246BAF10A0F0CD21AF804001AEBE9
:10027000080181F834001AF80400002802D01AF1AD
:10028000010AEFE7002088F83D00052E01D3042085
:100290000600C8F82C60C8F848600020C8F84C0078
:1002A00018F1040000F0BAFD18F1180000F0B6FDD6
:1002B000C8F81080D6F10500C8F81800C8F82480E6
:1002C0000020C8F85000002088F85400049A0399D0
:1002D000484600F0E3FDC8F80000002F01D0C7F841
:1002E000008005B0BDE8F08F10B5040000F065FE99
:1002F000DFF830040068401CDFF828140860DFF8DD
:10030000B004006800280AD1DFF8A4040460DFF814
:1003100014040068012811D100F0C6FA0EE0DFF8DD
:1003200008040068002809D1E06ADFF8841409682D
:10033000C96A884202D3DFF878040460DFF87404E5
:100340000068401CDFF86C140860DFF8680400687F
:100350002064DFF8640400680121E26A91400843E8
:10036000DFF854140860211DDFF85004E26A1423FA
:1003700003FB020000F055FD00F03CFEDFF8A8038F
:100380000068002802D0DFF82804006810BD38B5E6
:1003900004000025002C15D0DFF84C04006800286C
:1003A00007D0502080F31188BFF34F8FBFF36F8FBA
:1003B000FEE700F04CF80021200000F0E1FB00F027
:1003C0004EF80500002D08D15FF08050DFF89C1535
:1003D0000860BFF34F8FBFF36F8F31BD1CB5DFF8DF
:1003E000800701900020009000238222DFF874171C
:1003F0000FF29140FFF7C8FE0400012C02D100F07B
:1004000079FE0400012C16D1502080F31188BFF32F
:100410004F8FBFF36F8F5FF0FF30DFF8501708602A
:100420000120DFF8041308600020DFF8781408606A
:1004300000F05DFD0AE014F1010F07D1502080F3B8
:100440001188BFF34F8FBFF36F8FFEE713BDDFF847
:1004500098030068401CDFF890130860704770B57F
:1004600000240025DFF880030068002807D1502011
:1004700080F31188BFF34F8FBFF36F8FFEE700F05B
:100480009CFDDFF864030068401EDFF85C13086021
:10049000DFF85403006800284FD1DFF888020068B5
:1004A00000284AD0DFF8C006006800282AD0DFF80C
:1004B000B806C068C068040014F1180000F0DAFC47
:1004C000201D00F0D7FCDFF8F00200680121E26A8D
:1004D00091400843DFF8E0120860211DDFF8DC02DC
:1004E000E26A142303FB020000F09BFCE06ADFF8E1
:1004F000C0120968C96A8842D4D30120DFF8701697
:100500000860CFE7002C01D000F03FFADFF8640666
:100510000668002E0ED000F019F8002803D0012044
:10052000DFF84C160860761E002EF4D10020DFF8AC
:1005300044160860DFF83806006800F05BFD28000C
:1005400070BDDFF860130968080070472DE9F041BD
:100550000026DFF894020068002867D1DFF8440322
:100560000068471CDFF83C030760002F24D1DFF848
:10057000900300680068002807D0502080F311889D
:10058000BFF34F8FBFF36F8FFEE7DFF87403006890
:100590008046DFF8DC030068DFF864130860DFF8EA
:1005A000D003C0F80080DFF8D0050068401CDFF8F9
:1005B000C815086000F0E9F9DFF8B0050068874267
:1005C0003BD3DFF83C0300680068002805D15FF0EA
:1005D000FF30DFF8981508602FE0DFF8240300688B
:1005E000C068C068040060680500AF4203D2DFF84D
:1005F0007C05056021E0201D00F03CFCA06A00287D
:1006000003D014F1180000F035FC6B48006801219C
:10061000E26A9140084368490860211D6748E26A20
:10062000142303FB020000F0FCFBCAE7DFF84405DB
:100630000068401CDFF83C1508603000BDE8F08120
:1006400069480068002804D00120DFF824150860FC
:100650002DE00020DFF81815086057490968B1FA45
:1006600081F1D1F11F0108005449142202FB00114D
:100670000968002907D1502181F31188BFF34F8FFA
:10068000BFF36F8FFEE74D4A142303FB00221100D6
:100690004A6852684A604A6811F108039A4202D1D6
:1006A0004A6852684A604968C968414A116070479F
:1006B00038B504000D00002C07D1502080F31188BC
:1006C000BFF34F8FBFF36F8FFEE7DFF83805006889
:1006D00010F11801200000F0B0FB0121280000F00B
:1006E0004FFA31BD70B504000D001600002C07D183
:1006F000502080F31188BFF34F8FBFF36F8FFEE759
:10070000DFF80005006810F11801200000F089FBF7
:10071000002E02D05FF0FF3005003100280000F00D
:100720002FFA70BD684D0120744D012070B5040092
:10073000E068C0680500002D07D1502080F31188C3
:10074000BFF34F8FBFF36F8FFEE715F1180000F076
:1007500091FB25480068002813D1281D00F08AFB72
:10076000154800680121EA6A91400843124908606F
:10077000291D1248EA6A142303FB020000F051FB12
:1007800005E015F11801DFF8E00300F04AFB084826
:100790000068C06AE96A884206D20120060001208A
:1007A000DFF8D813086001E000200600300070BDBB
:1007B000584D0120844D0120704D0120104C012026
:1007C000002807D1502181F31188BFF34F8FBFF369
:1007D0006F8FFEE7DFF8A01309680160DFF83014BF
:1007E0000968416070470000904D0120F8B5040091
:1007F0000D00002C07D1502080F31188BFF34F8FDC
:10080000BFF36F8FFEE7002D07D1502080F31188D2
:10081000BFF34F8FBFF36F8FFEE700F0CEFB214891
:100820000768286810F1010F02D1002006001DE0C2
:10083000DFF8440300682168884205D06068874279
:1008400002D30120060011E06068381A2968884246
:100850000AD22868C01B6168081828602000FFF7CA
:10086000AFFF0020060001E00120060000F0C2FBFF
:100870003000F2BD0120DFF80413086070477047B4
:100880000000000010B5040000F03CF85FF080505C
:10089000DFF880130860BFF34F8FBFF36F8FFFF750
:1008A000EEFFF1E76C4D012010B500200400052C8F
:1008B00008D2DFF85803142101FB040000F09FFA6E
:1008C000641CF4E7DFF8500300F099FADFF84C03FA
:1008D00000F095FADFF8900200F091FADFF840039B
:1008E00000F08DFA234800F08AFADFF82C0304495F
:1008F0000860DFF82803DFF82C13086010BD000043
:100900005C4D012038B5DFF82003006800282BD0AB
:10091000FFF79DFDDFF808030068002801D10124DE
:1009200000E00024FFF79BFD002CECD100F045FB1C
:10093000DFF8EC02C068C0680500281D00F09AFAD4
:10094000DFF8E8020068401EDFF8E0120860DFF818
:10095000D8020068401EDFF8D012086000F04AFBA1
:10096000280000F009F8CEE731BD000004ED00E0FA
:10097000604D0120044D012010B50400206B00F0F3
:10098000C7F9200000F0C4F910BDDFF8A41209680F
:100990000968002904D15FF0FF31744A116008E052
:1009A000DFF88C120968C968C968080041686F4A95
:1009B00011607047DFF87C120968002902D101211B
:1009C000080009E0DFF870120968002902D102214D
:1009D000080001E000210800704738B50400250038
:1009E000002C4FD0E86ADFF81C120968C96A8842F7
:1009F00048D2A869002806D4DFF808020068C06A57
:100A0000D0F10500A8616869DFF80012EA6A1423D2
:100A100003FB0211884230D1281D00F02BFA002878
:100A200012D1DFF8E801E96A142202FB0100006834
:100A3000002809D1DFF8D00100680121EA6A91405D
:100A40008843DFF8C4110860DFF8B8010068C06AA5
:100A5000E862DFF8B40100680121EA6A91400843C6
:100A6000DFF8A4110860291DDFF8A001EA6A142349
:100A700003FB020000F0D5F904E0DFF8880100680C
:100A8000C06AE86231BD70B5040025000026002C64
:100A900054D0DFF870010068854207D0502080F301
:100AA0001188BFF34F8FBFF36F8FFEE7E86C00280C
:100AB00007D1502080F31188BFF34F8FBFF36F8FA2
:100AC000FEE7E86C401EE864E86AA96C884235D00D
:100AD000E86C002832D1281D00F0CCF9002812D192
:100AE000DFF82801E96A142202FB010000680028EF
:100AF00009D1DFF8140100680121EA6A91408843B6
:100B0000DFF804110860A86CE862E86AD0F105001B
:100B1000A861DFF8F40000680121EA6A9140084307
:100B2000DFF8E4100860291DDFF8E000EA6A14230A
:100B300003FB020000F075F901200600300070BDD3
:100B4000DFF8C0000068002805D0DFF8B8000068B2
:100B5000C16C491CC164DFF8AC000068704700003C
:100B60008C4D01205C230008DC4C0120884D0120C5
:100B70007C4D0120784D0120804D01207C4D0120CD
:100B8000F8B504000D00224807681E480068001DE3
:100B900000F070F900280BD11A4800681A4909685A
:100BA0000122C06A12FA00F031EA0000164908601A
:100BB00014F1010F08D1002D06D012480068011D64
:100BC0001E4800F02EF91BE0E01906000D480068F1
:100BD0004660BE4207D20B480068011D11480068FC
:100BE00000F02BF90CE007480068011D1048006870
:100BF00000F023F912480068864201D210480660CE
:100C0000F1BD0000584D0120704D0120104C012015
:100C10006C4D012004ED00E0B44C0120C84C0120D3
:100C2000F04C0120604D0120644D0120684D0120F1
:100C30005C4D0120744D0120904D0120044D012098
:100C4000884D012070472DE9F04104005FF0000855
:100C5000FFF7FDFB49480068002804D100F079F84F
:100C6000012046490860002C0BD04548008814FA42
:100C700080F414F0070F04D014F1080014F00701F9
:100C8000441A002C3AD03F48844237D23E480600EE
:100C90003D48006805006868A04205D22868002821
:100CA00002D02E002D68F6E73848854226D03068FD
:100CB0003349098808188046286830603048008821
:100CC00040006968091B884212D2601907006868F1
:100CD000001B78606C607A6811002B4A1000026873
:100CE00052688A4201D20068F9E702683A600760F8
:100CF000274800686968401A25490860FFF7AFFB7C
:100D0000B8F1000F01D1FFF79DFF4046BDE8F0812B
:100D1000F8B504002600002C1AD019480088361AAD
:100D20003500FFF794FB69680F0017490800016858
:100D30004968B94201D20068F9E701682960056095
:100D4000134800686968081811490860FFF787FBB5
:100D5000F1BD104AD208D20011000B4A11600022E6
:100D6000094B5A60074A094B5A600022074B1A6028
:100D70000800044A4260054A02607047504D012055
:100D8000721D0008F82B0100404D0120484D012044
:100D9000000000201820002062F30F2262F31F429F
:100DA000401810F0030308D0C91A1FD3DB0748BF4F
:100DB00000F8012D28BF20F8022D130030B414468E
:100DC0001546103928BF20E93C00FAD8490728BF4A
:100DD00020E90C0048BF40F8042D890028BF20F806
:100DE000022D48BF00F8012D30BC7047C91818BF4C
:100DF00000F8012DCB0728BF00F8012D704710F136
:100E0000080141605FF0FF31816010F10801C160AD
:100E100010F10801016100210160704700210161AA
:100E2000704742684A6093688B609368596091602C
:100E3000086103685B1C0360704710B40B6813F112
:100E4000010F02D10469220008E010F10804220019
:100E500054682468A34201D35268F9E754684C608F
:100E60004C68A1608A60516008610468641C046079
:100E700010BC7047010008698A684B689A604A682C
:100E80008B685A6042688A4201D18A6842600022B7
:100E90000A610268521E026000687047001F5FF01E
:100EA00080730360001F4B085B000360001F0FF29C
:100EB0001503036014380260001F7FF00203036013
:100EC000203870477C48006810F1010F07D050208F
:100ED00080F31188BFF34F8FBFF36F8FFEE7502071
:100EE00080F31188BFF34F8FBFF36F8FFEE700B51C
:100EF00083B0724800687249884207D1502080F35D
:100F00001188BFF34F8FBFF36F8FFEE76B48006808
:100F10006C49884207D1502080F31188BFF34F8F6E
:100F2000BFF36F8FFEE7684801780191FF210170E0
:100F300001788DF800109DF8001011F05001634AFF
:100F400011700721624A11609DF8001009060AD548
:100F50005F490968491E5E4A11609DF8001049000A
:100F60008DF80010F0E75A4909680902584A1160E3
:100F70005749096811F4E061554A116001990170FF
:100F80005448006850F470005249086051480068A5
:100F900050F070404F49086000F059F80020464971
:100FA000086000F00BFB4C48006850F040404A4994
:100FB000086000F0F7FA00200EBD502080F3118881
:100FC000BFF34F8FBFF36F8F3B480068401C3A4917
:100FD00008603948006801280BD1404800680006C5
:100FE00007D0502080F31188BFF34F8FBFF36F8F6E
:100FF000FEE7704730480068002807D1502080F392
:101000001188BFF34F8FBFF36F8FFEE72A48006848
:10101000401E2949086028480068002802D10020A5
:1010200080F31188704780B5502080F31188BFF39A
:101030004F8FBFF36F8FFFF789FA002803D05FF05F
:10104000805026490860002080F3118801BD2448A3
:1010500000684FF47A71B0FBF1F0401E214908603E
:101060000720214908607047EFF30582100010281F
:1010700010D31E4A1268825C1100144A1278C9B259
:10108000914207D2502282F31188BFF34F8FBFF3F2
:101090006F8FFEE70E4A1268154B1B6813F4E0636E
:1010A0009A4207D2502282F31188BFF34F8FBFF3C9
:1010B0006F8FFEE7704700000400002000ED00E0A5
:1010C00071C20F4170C20F4100E400E0A84D012041
:1010D000544D012020ED00E034EF00E004ED00E08D
:1010E0000800002014E000E010E000E07423000895
:1010F0000CED00E01CB5002400F0DFF9DFF8080477
:10110000006800280ED0DFF804040190022000904F
:1011100000234FF48272DFF8F8130FF20110FFF78B
:1011200033F80400002C07D1502080F31188BFF35E
:101130004F8FBFF36F8FFEE7200016BD2DE9FE43F2
:1011400004000D0016001F00DDF828805FF0000984
:10115000002C07D1502080F31188BFF34F8FBFF3CD
:101160006F8FFEE7DFF8A0030068002825D0009508
:1011700001960294062D17DAFFF71CFC022809D10C
:10118000002342466946DFF88003006800F0AAFAAF
:10119000814612E0002300226946DFF86C030068F4
:1011A00000F0A0FA814608E000233A006946DFF823
:1011B0005803006800F059FB81464846BDE8FE83AD
:1011C000F8B504000D00DFF84C030068C068C7687C
:1011D000381DFFF74FFEF86901281BD123002A00B4
:1011E000B8690119380000F089F8002812D00020F1
:1011F00000900023220000213800FFF79FFF060027
:10120000002E07D1502080F31188BFF34F8FBFF31A
:101210006F8FFEE73800796A8847F1BD38B5040062
:10122000684600F040F805000099280000F003F837
:1012300000F08CF8F4E770B582B004000E00FFF700
:1012400006F9684600F046F805000098002827D106
:10125000002E08D1A54206D3FFF701F9290020008E
:10126000FFF7AEFF1EE0002E07D0AB480068006815
:10127000002801D1012600E000263200611BA248AF
:10128000006800F015FDFFF7EAF800280AD15FF0CA
:101290008050A2490860BFF34F8FBFF36F8F01E00A
:1012A000FFF7DDF873BD01009A4A12681268002A40
:1012B00001D1012200E00022D2B20A600A68002AAD
:1012C00005D1944A1268D2681268100001E0002229
:1012D0001000704738B50400FFF733F90500904857
:1012E0000068854204D200F0A0F80120206001E0EF
:1012F000002020608A480560280032BD2DE9F041B9
:1013000004000D0016001F005FF0000865602461F6
:10131000AE420CD3F01BA169884202D30120804663
:1013200011E0211D7C480068FFF787FD0BE0BE42FD
:1013300004D2BD4202D30120804604E0211D75483D
:101340000068FFF77AFD4046BDE8F08170B586B0D1
:101350000023002201A96C48006800F0FDFA002873
:1013600061D001980028F3D4039804006069002834
:1013700002D0201DFFF77EFD04A8FFF7ABFF06009B
:10138000019800280ED002280CD00BD3042830D0AE
:101390002ED3062806D041D3082829D002D3092805
:1013A00027D03FE0029B32000298A1690918200073
:1013B000FFF7A4FF00281AD02000616A8847E0697F
:1013C000012814D10020009000230298A1690A1876
:1013D00000212000FFF7B2FE0500002D07D15020AC
:1013E00080F31188BFF34F8FBFF36F8FFEE7AFE736
:1013F000AEE70298A061A069002807D1502080F3D1
:101400001188BFF34F8FBFF36F8FFEE733003200B9
:10141000A06981192000FFF771FF99E72000FFF70D
:1014200077FC95E794E706B070BD2DE9F04182B0F6
:10143000384800680068002834D036480068C06822
:101440000068040033480068C068C0680700381DA1
:10145000FFF710FD3800796A8847F8690128E7D15D
:10146000B86900190500AC4207D27D603F61391DA3
:1014700028480068FFF7E1FCDAE70020009000232D
:10148000220000213800FFF759FE8046B8F1000F16
:1014900007D1502080F31188BFF34F8FBFF36F8FB8
:1014A000FEE7C5E71B48006806001B4800681949AD
:1014B000086019480660BDE8F38180B5FFF77DFD3F
:1014C0001148006800281BD11648FFF798FC164801
:1014D000FFF795FC13480F49086013480E49086050
:1014E00000220C210A2000F0B6F8074908600648DF
:1014F0000068002804D00D490348006800F0C0FBD4
:10150000FFF778FD01BD00009C4D0120A04D01209A
:1015100064230008944D0120984D012004ED00E063
:10152000A44D0120184D01202C4D01206C230008F2
:10153000EFF30980BFF36F8F244B1A681EF0100F72
:1015400008BF20ED108A20E9F04F106008B44FF07A
:10155000500080F31188BFF34F8FBFF36F8FFFF7F9
:101560006FF84FF0000080F3118808BC1968086814
:10157000B0E8F04F1EF0100F08BFB0EC108A80F3F7
:101580000988BFF36F8F7047104B19680868B0E87F
:10159000F04F80F30988BFF36F8F4FF0000080F3A6
:1015A000118870470A480068006880F3088862B6AE
:1015B00061B6BFF34F8FBFF36F8F00DFDFF814000A
:1015C000016841F47001016070470000584D01202E
:1015D00008ED00E088ED00E070B504000D00260085
:1015E000002E07D1502080F31188BFF34F8FBFF337
:1015F0006F8FFEE7FFF7E1FC3068F16B326C02FBA6
:10160000010070600020B0633068B0603068F16B3A
:10161000491E326C02FB0100F0605FF0FF3086F87B
:1016200044005FF0FF3086F84500002D07D1306997
:1016300000280CD016F11000FFF778F807E016F13B
:101640001000FFF7DCFB16F12400FFF7D8FBFFF7D3
:10165000D1FC012070BD2DE9F84304000D001600F7
:10166000002C07D1502080F31188BFF34F8FBFF3B8
:101670006F8FFEE7002D02D10020804602E005FBBF
:1016800004F0804618F15000FFF7DDFA0700002F44
:101690000AD017F15000814600973300DBB24A466A
:1016A0002900200000F003F83800BDE8F2832DE99E
:1016B000F04104000D0016001F00DDF81880002D19
:1016C00002D1C8F8008001E0C8F80060C8F83C40CA
:1016D000C8F8405001214046FFF77EFF88F84C7063
:1016E000BDE8F0812DE9F74304000D001E005FF016
:1016F0000008A146B9F1000F07D1502080F31188EE
:10170000BFF34F8FBFF36F8FFEE7002D03D1D9F8E2
:101710004000002801D1012000E00020C0B20028D4
:1017200007D1502080F31188BFF34F8FBFF36F8F25
:10173000FEE7022E03D1D9F83C00012801D1012097
:1017400000E00020C0B2002807D1502080F31188AB
:10175000BFF34F8FBFF36F8FFEE7FFF72BF9002822
:1017600002D10298002801D1012000E00020C0B27F
:10177000002807D1502080F31188BFF34F8FBFF3AB
:101780006F8FFEE7FFF719FCD9F83800D9F83C1045
:10179000884201D3022E12D132002900484600F0BF
:1017A000B2F90700D9F82400002804D019F1240068
:1017B000FEF7BCFFFFE7FFF71DFC012053E0029896
:1017C000002803D1FFF716FC00204CE0B8F1000F11
:1017D00004D16846FEF7F4FF01208046FFF70AFCBB
:1017E000FEF735FEFFF7E9FB99F9440010F1010F10
:1017F00002D1002089F8440099F9450010F1010F49
:1018000002D1002089F84500FFF7F4FB02A96846E1
:10181000FEF7ECFF002820D1484600F020FA00280F
:1018200015D0029919F11000FEF742FF484600F06A
:10183000CFF9FEF714FE0028A4D15FF08050DFF846
:1018400068140860BFF34F8FBFF36F8F9AE7484665
:1018500000F0BEF9FEF703FE94E7484600F0B8F941
:10186000FEF7FDFD0020BDE8FE832DE9F84F0400E2
:101870000D0016001F00A246BAF1000F07D150203C
:1018800080F31188BFF34F8FBFF36F8FFEE7002DFA
:1018900003D1DAF84000002801D1012000E0002047
:1018A000C0B2002807D1502080F31188BFF34F8FBA
:1018B000BFF36F8FFEE7022F03D1DAF83C00012857
:1018C00001D1012000E00020C0B2002807D1502043
:1018D00080F31188BFF34F8FBFF36F8FFEE7FFF7E1
:1018E000C3FBEFF311808146502080F31188BFF3D2
:1018F0004F8FBFF36F8FDAF83800DAF83C10884268
:1019000001D3022F21D19AF945B03A00290050465F
:1019100000F0F9F84FFA8BFB1BF1010F0ED1DAF84A
:10192000240000280ED01AF12400FEF7FFFE002844
:1019300008D0002E06D00120306003E01BF101002A
:101940008AF845000120804601E00020804689F3A6
:1019500011884046BDE8F28F2DE9F44783B00400BA
:101960000D001E000027A146B9F1000F07D150203D
:1019700080F31188BFF34F8FBFF36F8FFEE7002D09
:1019800003D1D9F84000002801D1012000E0002057
:10199000C0B2002807D1502080F31188BFF34F8FC9
:1019A000BFF36F8FFEE7FFF705F8002802D1039819
:1019B000002801D1012000E00020C0B2002807D19A
:1019C000502080F31188BFF34F8FBFF36F8FFEE776
:1019D000FFF7F3FAD9F838A0BAF1000F2BD0D9F8F5
:1019E0000C0080462900484600F0DAF8002E14D199
:1019F000BAF10100C9F83800D9F80000002803D175
:101A0000FFF79EF8C9F80400D9F8100000280ED09E
:101A100019F11000FEF78AFE09E0C9F80C80D9F828
:101A20002400002803D019F12400FEF77FFEFFF701
:101A3000E1FA012064E00398002803D1FFF7DAFA05
:101A400000205DE0002F04D16846FEF7B9FE0120BA
:101A50000700FFF7CFFAFEF7FAFCFFF7AEFA99F9A5
:101A6000440010F1010F02D1002089F8440099F9D7
:101A7000450010F1010F02D1002089F84500FFF761
:101A8000B9FA03A96846FEF7B1FE00282CD14846F2
:101A900000F0D5F8002821D0D9F80000002807D19F
:101AA000FFF78BFAD9F80400FEF797FFFFF7A2FAC9
:101AB000039919F12400FEF7FBFD484600F088F871
:101AC000FEF7CDFC002883D15FF08050DFF8D811FD
:101AD0000860BFF34F8FBFF36F8F79E7484600F080
:101AE00077F8FEF7BCFC73E7484600F071F8FEF7A4
:101AF000B6FC484600F0A3F800283FF469AF002088
:101B000004B0BDE8F0872DE9F04704000D00160091
:101B10000027A06B8046206C002809D1206800288F
:101B200038D16068FEF7AFFF07000020606031E049
:101B3000002E13D1D4F84090D4F808A04A462900CA
:101B4000504600F0DBF8A068216C0818A060A0687F
:101B5000616888421ED32068A0601BE0D4F84090E2
:101B6000D4F80CA04A462900504600F0C7F8E068B7
:101B7000216C401AE060E0682168884203D2606806
:101B8000216C401AE060022E04D1B8F1000F01D0A0
:101B9000B8F1010818F10100A0633800BDE8F08732
:101BA000F8B504000D00206C002810D0E068216C0E
:101BB0000818E060E0686168884201D32068E0604E
:101BC000266CE76832003900280000F097F8F1BD74
:101BD00070B50400FFF7F1F994F945506DB2012D8D
:101BE0000CDB606A002809D014F12400FEF79EFD8A
:101BF000002801D0FEF73EFE6D1EEFE75FF0FF30DC
:101C000084F84500FFF7F6F9FFF7D7F994F9446037
:101C100076B2012E0CDB2069002809D014F11000E7
:101C2000FEF784FD002801D0FEF724FE761EEFE7C4
:101C30005FF0FF3084F84400FFF7DCF970BD38B581
:101C40000400FFF7BAF9A06B002802D101200500BB
:101C500001E000200500FFF7CDF9280032BD38B5BE
:101C60000400FFF7AAF9A06BE16B884202D10120C2
:101C7000050001E000200500FFF7BCF9280032BD97
:101C800000231A00082A0ED2084B53F83230002BDA
:101C900007D1064B43F83210044B13EBC2035860D4
:101CA00001E0521CEEE7704704ED00E0744C0120A7
:101CB000F8B504000D0016002700FFF77EF997F92C
:101CC000440010F1010F02D1002087F8440097F979
:101CD000450010F1010F02D1002087F84500FFF701
:101CE00089F9B86B002805D13200290017F12400CA
:101CF000FEF7F8FC3800FFF76BFFF1BD62B38B070E
:101D000008D0521E11F8013B00F8013B00F024807E
:101D10008B07F6D1830740F0208000BF103A07D32D
:101D200030B4B1E83810103AA0E83810F9D230BC1D
:101D3000530724BFB1E80810A0E8081044BF51F8C9
:101D4000043B40F8043BD20724BF31F8022B20F8B3
:101D5000022B44BF0B7803707047083A07D3B1E8F1
:101D60000810083A40F8043B40F804CBF7D2530778
:101D7000E4E7080080B55248006850F4700050490C
:101D800008605048006850F001004E49086000208B
:101D90004D4908604B4800684C4908404949086073
:101DA0004B484C4908604748006830F4802045495A
:101DB000086000204849086000F005F85FF0006006
:101DC0004649086001BD82B00020019000200090CB
:101DD0003C48006850F480303A490860394800684F
:101DE00010F4003000900198401C019000980028E9
:101DF00003D10198B0F5A06FF0D13248006880039C
:101E000002D50120009001E00020009000980128F8
:101E100002D133482F4908603248006850F08050A2
:101E2000304908603048006850F440402E4908604E
:101E300025480068244908602348006850F40040A1
:101E4000214908602048006850F4A0501E490860ED
:101E50001C48006850F080701A49086019480068F2
:101E60008001FBD52048006850F480301E4908608E
:101E70001E480068C003FBD51B48006850F40030C2
:101E800019490860194800688003FBD540F20570C5
:101E9000174908600C480068800880000A490860FB
:101EA0000948006850F002000749086006480068C9
:101EB00010F00C000828F9D102B0704700000000B3
:101EC00088ED00E00038024008380240FFFFF6FECF
:101ED00010300024043802400C38024008ED00E0C5
:101EE000085A40074038024000700040047000402B
:101EF000003C02400148804701480047751D00082A
:101F000035230008FFF7FEBFFFF7FEBFFFF7FEBF58
:101F1000FFF7FEBFFFF7FEBFFFF7FEBFFFF7FEBFF5
:101F2000FFF7FEBFFFF7FEBFFFF7FEBFFFF7FEBFE5
:101F3000FFF7FEBFFFF7FEBFFFF7FEBFFFF7FEBFD5
:101F4000FFF7FEBFFFF7FEBFFFF7FEBFFFF7FEBFC5
:101F5000FFF7FEBFFFF7FEBFFFF7FEBFFFF7FEBFB5
:101F6000FFF7FEBFFFF7FEBFFFF7FEBFFFF7FEBFA5
:101F7000FFF7FEBFFFF7FEBFFFF7FEBFFFF7FEBF95
:101F8000FFF7FEBFFFF7FEBFFFF7FEBFFFF7FEBF85
:101F9000FFF7FEBFFFF7FEBFFFF7FEBFFFF7FEBF75
:101FA000FFF7FEBFFFF7FEBFFFF7FEBFFFF7FEBF65
:101FB000FFF7FEBFFFF7FEBFFFF7FEBFFFF7FEBF55
:101FC000FFF7FEBFFFF7FEBFFFF7FEBFFFF7FEBF45
:101FD000FFF7FEBFFFF7FEBFFFF7FEBFFFF7FEBF35
:101FE000FFF7FEBFFFF7FEBFFFF7FEBFFFF7FEBF25
:101FF000FFF7FEBFFFF7FEBFFFF7FEBFFFF7FEBF15
:10200000FFF7FEBFFFF7FEBFFFF7FEBFFFF7FEBF04
:10201000FFF7FEBFFFF7FEBFFFF7FEBFFFF7FEBFF4
:10202000FFF7FEBFFFF7FEBFFFF7FEBFFFF7FEBFE4
:10203000FFF7FEBFFFF7FEBFFFF7FEBFFFF7FEBFD4
:10204000FFF7FEBFFFF7FEBFFFF7FEBFFFF7FEBFC4
:10205000FFF7FEBFFFF7FEBFFFF7FEBFFFF7FEBFB4
:10206000FFF7FEBF00B583B00121402000F066F805
:1020700001208DF8040000208DF806004FF4C040C8
:10208000009000208DF8070002208DF805006946B9
:10209000244800F065F807BD10B504004FF4005166
:1020A000204800F0B2F86420FEF771F95FF080502C
:1020B0001D490860BFF34F8FBFF36F8FEEE710B578
:1020C00004004FF48041174800F09FF86420FEF7A9
:1020D0005EF95FF0805014490860BFF34F8FBFF383
:1020E0006F8FEEE700B583B0FFF7BCFF4FF40051F0
:1020F0000C4800F08AF80020019001200090002395
:1021000082220A490A48FEF73FF800200190012088
:1021100000900023822207490748FEF735F8FEF7B2
:102120005DF9FEE70018024004ED00E04C230008D2
:102130009920000854230008BF200008C9B20029D4
:1021400005D0064A12680243044B1A6004E0034AB1
:1021500012688243014B1A60704700003038024019
:10216000F0B400220023002400252A00102A4AD2BD
:10217000012595402B000D681D402C009C4240D14C
:10218000056803261700FFB27F00BE40B543056017
:1021900005680E791700FFB27F00BE403543056029
:1021A0000D79012D02D00D79022D1AD185680326F3
:1021B0001700FFB27F00BE40B543856085684E7949
:1021C0001700FFB27F00BE40354385604568012699
:1021D0009640B543456045688E799640B6B2354322
:1021E0004560C56803261700FFB27F00BE40B543B7
:1021F000C560C568CE791700FFB27F00BE40354389
:10220000C560521CB2E7F0BC7047426989B24A40CF
:102210004261704719E050F8041BCB0744BFA9F195
:1022200001035918121F0023042A41F8043BF9D274
:102230005FEA827C0B4604D54FF0000CA1F800C089
:102240009B1CD10744BF0021197050F8042B002AB1
:10225000E1D1704710B450F8041B79B102684368AB
:1022600012180830DC0744BFA9F10104E31852F842
:10227000044B43F8044B091FF9D1ECE710BC70473D
:1022800010B5074979441831064C7C44163404E0F3
:102290000A68081D511888470146A142F8D110BDAF
:1022A0002C0000004C0000004EF68851CEF20001D8
:1022B000086840F470000860BFF34F8FBFF36F8F62
:1022C0004FF00070E1EE100A7047000049FFFFFF79
:1022D0009C2D0100102000200000000079FFFFFF6E
:1022E0000C0000005C000000000000200000000066
:1022F00000F00BF8002801D0FFF7C2FF0020C04615
:10230000C046FFF7EFFE00F002F80120704700F032
:1023100001B800000746384600F002F8FBE700006D
:1023200080B5C046C046024A11001820ABBEFBE78C
:1023300026000200C046C046FFF7B6FFFFF7D8FFF1
:10234000F82B0100AAAAAAAA0095BA0A5461736BD5
:10235000203100005461736B2032000049444C4529
:1023600000000000546D722053766300546D72516A
:0823700000000000F0E300E0B2
:040000050800233597
:00000001FF
