:020000040800F2
:1000000008200020C5210008152200081922000838
:100010001D220008212200082522000800000000FF
:10002000000000000000000000000000451500086E
:100030002D22000800000000ED140008E30F000866
:10004000392200083D22000841220008452200080C
:10005000492200084D2200085122000855220008BC
:10006000592200085D22000861220008652200086C
:10007000692200086D22000871220008752200081C
:10008000792200087D2200088122000885220008CC
:10009000892200088D22000891220008952200087C
:1000A000992200089D220008A1220008A52200082C
:1000B000A9220008AD220008B1220008B5220008DC
:1000C000B9220008BD220008C1220008C52200088C
:1000D000C9220008CD220008D1220008D52200083C
:1000E000D9220008DD220008E1220008E5220008EC
:1000F000E9220008ED220008F1220008F52200089C
:10010000F9220008FD220008012300080523000849
:10011000092300080D2300081123000815230008F7
:10012000192300081D2300082123000825230008A7
:10013000292300082D230008312300083523000857
:10014000392300083D230008412300084523000807
:10015000492300084D2300085123000855230008B7
:10016000592300085D230008612300086523000867
:10017000692300086D230008712300087523000817
:10018000792300087D2300082DE9F04F85B0040095
:100190000D0016001F00DDF83880DDF83C90B6B287
:1001A000B00000F08EFD8346BBF1000F0DD058204B
:1001B00000F087FD8246BAF1000F02D0CAF830B0D5
:1001C00005E0584600F0B3FD01E000208246BAF198
:1001D000000F14D000200390CDF808A0CDF80490B3
:1001E000CDF800803B00B6B232002900200000F0BC
:1001F0000DF8504600F078F80120049002E05FF01E
:10020000FF300490049805B0BDE8F08F2DE9F94F58
:1002100083B00C0015000E9E0F9FDDF84080A800F3
:100220000190A5200090D8F830B0009A0199584666
:1002300000F090FDD8F8300010EB8500001F8146DB
:100240005FEAD9095FEAC90919F00700002807D059
:10025000502080F31188BFF34F8FBFF36F8FFEE7FD
:1002600000208246BAF10A0F0CD21AF804001AEBE9
:10027000080181F834001AF80400002802D01AF1AD
:10028000010AEFE7002088F83D00052E01D3042085
:100290000600C8F82C60C8F848600020C8F84C0078
:1002A00018F1040000F098FD18F1180000F094FD1A
:1002B000C8F81080D6F10500C8F81800C8F82480E6
:1002C0000020C8F85000002088F85400049A0399D0
:1002D000484600F0C1FDC8F80000002F01D0C7F863
:1002E000008005B0BDE8F08F10B5040000F043FEBB
:1002F000DFF85C040068401CDFF854140860DFF885
:100300005404006800280AD1DFF848040460DFF8CC
:1003100040040068012811D100F00CFB0EE0DFF86A
:1003200038040068002809D1E06ADFF82814096859
:10033000C96A884202D3DFF81C040460DFF85C0459
:100340000068401CDFF854140860DFF850040068AF
:100350002064DFF84C0400680121E26A9140084300
:10036000DFF83C140860211DDFF83804E26A14232A
:1003700003FB020000F033FD00F01AFEDFF8D803A3
:10038000006800280FD0DFF8CC030068C06AE16A7B
:10039000884208D25FF08050DFF85C150860BFF338
:1003A0004F8FBFF36F8F10BD38B504000025002CB0
:1003B00015D0DFF880040068002807D0502080F3B3
:1003C0001188BFF34F8FBFF36F8FFEE700F04CF83B
:1003D0000021200000F012FC00F04EF80500002D76
:1003E00008D15FF08050DFF810150860BFF34F8F21
:1003F000BFF36F8F31BD1CB5DFF8E007019000201F
:10040000009000238222DFF8DC170FF2F540FFF79F
:10041000BBFE0400012C02D100F04AFE0400012CB6
:1004200016D1502080F31188BFF34F8FBFF36F8F29
:100430005FF0FF30DFF8B01708600120DFF8181315
:1004400008600020DFF81814086000F02EFD0AE0B4
:1004500014F1010F07D1502080F31188BFF34F8FA3
:10046000BFF36F8FFEE713BDDFF8C8030068401CC1
:10047000DFF8C0130860704770B500240025DFF86E
:10048000B4030068002807D1502080F31188BFF31F
:100490004F8FBFF36F8FFEE700F06DFDDFF8940321
:1004A0000068401EDFF88C130860DFF888030068DE
:1004B00000285CD1DFF898020068002857D0DFF8E8
:1004C0002007006800282AD0DFF81407C068C06839
:1004D000040014F1180000F0ABFC201D00F0A8FC93
:1004E000DFF8BC0200680121E26A91400843DFF8AE
:1004F000B0120860211DDFF8AC02E26A142303FB8E
:10050000020000F06CFCE06ADFF848120968C96A72
:100510008842D4D30120DFF8D8160860CFE7002C3A
:1005200001D000F070FADFF8C4060668002E0ED085
:1005300000F026F8002803D00120DFF8B416086088
:10054000761E002EF4D10020DFF8A0160860DFF838
:10055000A006006800280AD0012005005FF0805046
:10056000DFF894130860BFF34F8FBFF36F8F00F075
:100570001FFD280070BDDFF8E81209680800704709
:100580002DE9F0410026DFF8AC02006800287CD19C
:10059000DFF8CC020068471CDFF8C4020760002FB8
:1005A00024D1DFF8880300680068002807D05020B5
:1005B00080F31188BFF34F8FBFF36F8FFEE7DFF833
:1005C0006C0300688046DFF868030068DFF85C139E
:1005D0000860DFF85C03C0F80080DFF818060068E8
:1005E000401CDFF81016086000F00DFADFF8F8057F
:1005F000006887423CD3DFF83403006800680028B5
:1006000005D15FF0FF30DFF8E015086030E0DFF87B
:100610001C030068C068C068040060680500AF4241
:1006200003D2DFF8C405056022E0201D00F000FCC5
:10063000A06A002803D014F1180000F0F9FB584814
:1006400000680121E26A9140084355490860211D74
:100650005448E26A142303FB020000F0C0FBE06A86
:100660003C490968C96A8842C5D301200600C2E72F
:100670004C4838490968C96A142202FB0100006825
:10068000022809D30120060006E0DFF860050068B3
:10069000401CDFF858150860DFF854050068002892
:1006A00001D0012006003000BDE8F08161480068FB
:1006B000002804D00120DFF8381508602DE0002064
:1006C000DFF82C15086036490968B1FA81F1D1F1DB
:1006D0001F0108003349142202FB00110968002998
:1006E00007D1502181F31188BFF34F8FBFF36F8F74
:1006F000FEE72C4A142303FB002211004A685268CB
:100700004A604A6811F108039A4202D14A68526865
:100710004A604968C9680F4A1160704738B50400DB
:100720000D00002C07D1502080F31188BFF34F8FAC
:10073000BFF36F8FFEE7DFF84805006810F118017E
:10074000200000F058FB0121280000F057FA31BDCD
:10075000544D0120444D0120604D012070B504002E
:100760000D001600002C07D1502080F31188BFF334
:100770004F8FBFF36F8FFEE7DFF80405006810F1BD
:100780001801200000F02BFB002E02D05FF0FF309C
:1007900005003100280000F031FA70BD704D0120D5
:1007A0005C4D0120084C012070B50400E068C06871
:1007B0000500002D07D1502080F31188BFF34F8F23
:1007C000BFF36F8FFEE715F1180000F031FB1948F9
:1007D0000068002816D1281D00F02AFBDFF8A404C9
:1007E00000680121EA6A91400843DFF89814086024
:1007F000291DDFF89404EA6A142303FB020000F0C9
:10080000EEFA05E015F11801DFF8D40300F0E7FA7D
:10081000DFF86C040068C06AE96A884206D20120E9
:1008200006000120DFF8D013086001E00020060078
:10083000300070BD7C4D0120002807D1502181F38C
:100840001188BFF34F8FBFF36F8FFEE7DFF8A4135C
:1008500009680160DFF834140968416070470000DE
:10086000584D0120F8B504000D00002C07D1502090
:1008700080F31188BFF34F8FBFF36F8FFEE7002D1A
:1008800007D1502080F31188BFF34F8FBFF36F8FD4
:10089000FEE700F070FBDFF8F4030768286810F14A
:1008A000010F02D1002006001DE0DFF848030068B8
:1008B0002168884205D06068874202D30120060083
:1008C00011E06068381A296888420AD22868C01B7B
:1008D0006168081828602000FFF7AEFF00200600BE
:1008E00001E00120060000F063FB3000F2BD0120B2
:1008F000DFF804130860704704ED00E07047000063
:1009000010B5040000F043F8DFF87C03006802280B
:1009100008D35FF08050DFF878130860BFF34F8F83
:10092000BFF36F8FFFF7EAFFECE70000484D0120AF
:100930004C4D012010B500200400052C08D2DFF832
:100940004803142101FB040000F037FA641CF4E7AB
:10095000DFF8400300F031FADFF83C0300F02DFA35
:10096000DFF87C0200F029FADFF8300300F025FA06
:10097000DFF82C0300F021FADFF81803DFF8241366
:100980000860DFF81403DFF82013086010BD38B5E5
:10099000DFF81803006800282BD0FFF765FDDFF8AB
:1009A000FC020068002801D1012400E00024FFF7C8
:1009B00063FD002CECD100F0DEFADFF8E002C06845
:1009C000C0680500281D00F033FADFF8E402006873
:1009D000401EDFF8DC120860DFF8D0020068401E1D
:1009E000DFF8C812086000F0E3FA280000F002F80F
:1009F000CEE731BD10B50400206B00F098F920005F
:100A000000F095F910BDDFF89C120968096800290B
:100A100004D15FF0FF31744A116008E0DFF88412FE
:100A20000968C968C968080041686F4A1160704761
:100A3000DFF880120968002902D10121080009E0CD
:100A4000DFF874120968002902D10221080001E0D0
:100A500000210800704738B504002500002C4FD055
:100A6000E86ADFF81C120968C96A884248D2A86996
:100A7000002806D4DFF808020068C06AD0F105003B
:100A8000A8616869DFF80012EA6A142303FB021107
:100A9000884230D1281D00F0CBF9002812D1DFF8B0
:100AA000E801E96A142202FB01000068002809D16C
:100AB000DFF8D00100680121EA6A91408843DFF83D
:100AC000C4110860DFF8B8010068C06AE862DFF8A6
:100AD000B40100680121EA6A91400843DFF8A411DB
:100AE0000860291DDFF8A001EA6A142303FB020055
:100AF00000F075F904E0DFF888010068C06AE86278
:100B000031BD70B5040025000026002C54D0DFF85C
:100B100070010068854207D0502080F31188BFF330
:100B20004F8FBFF36F8FFEE7E86C002807D150208E
:100B300080F31188BFF34F8FBFF36F8FFEE7E86C30
:100B4000401EE864E86AA96C884235D0E86C002849
:100B500032D1281D00F06CF9002812D1DFF82801ED
:100B6000E96A142202FB01000068002809D1DFF8BD
:100B7000140100680121EA6A91408843DFF80411FA
:100B80000860A86CE862E86AD0F10500A861DFF8A7
:100B9000F40000680121EA6A91400843DFF8E4109C
:100BA0000860291DDFF8E000EA6A142303FB020055
:100BB00000F015F901200600300070BDDFF8C0001C
:100BC0000068002805D0DFF8B8000068C16C491C37
:100BD000C164DFF8AC00006870470000784D012068
:100BE000D44C0120F0210008744D0120644D0120F7
:100BF000684D01206C4D0120684D0120F8B50400BE
:100C00000D00224807681E480068001D00F010F91A
:100C100000280BD11A4800681A4909680122C06AE5
:100C200012FA00F031EA00001649086014F1010FD1
:100C300008D1002D06D012480068011D184800F0A8
:100C4000CEF81BE0E01906000D4800684660BE4281
:100C500007D20B480068011D1348006800F0CBF86C
:100C60000CE007480068011D0E48006800F0C3F85A
:100C700012480068864201D210480660F1BD0000AB
:100C8000444D01205C4D0120084C0120584D0120AD
:100C900004ED00E0AC4C0120C04C0120E84C0120E8
:100CA000FC4C0120484D01204C4D0120504D0120AD
:100CB000544D0120604D01207C4D0120744D0120D8
:100CC000704738B50500002415F0070F04D015F162
:100CD000080015F00701451AFFF7C6FB1948006820
:100CE000002804D11848C008C000164908601748F9
:100CF000006828181649884211D214480068134920
:100D00000968691888420AD20E4800680F490968C4
:100D1000081804000D48006828180C490860FFF7FF
:100D2000ABFB002C01D1FFF7CBFF200032BD002828
:100D300007D0502181F31188BFF34F8FBFF36F8F1E
:100D4000FEE770473C4D012010200020384D012067
:100D5000F82B010062F30F2262F31F42401810F0DB
:100D6000030308D0C91A1FD3DB0748BF00F8012DC1
:100D700028BF20F8022D130030B414461546103950
:100D800028BF20E93C00FAD8490728BF20E90C0019
:100D900048BF40F8042D890028BF20F8022D48BF25
:100DA00000F8012D30BC7047C91818BF00F8012D9C
:100DB000CB0728BF00F8012D704710F108014160F2
:100DC0005FF0FF31816010F10801C16010F108018E
:100DD0000161002101607047002101617047426894
:100DE0004A6093688B6093685960916008610368FA
:100DF0005B1C0360704710B40B6813F1010F02D144
:100E00000469220008E010F10804220054682468F4
:100E1000A34201D35268F9E754684C604C68A16062
:100E20008A60516008610468641C046010BC7047EB
:100E3000010008698A684B689A604A688B685A6042
:100E400042688A4201D18A68426000220A610268CF
:100E5000521E026000687047001F5FF080730360DD
:100E6000001F4B085B000360001F0FF215030360B7
:100E700014380260001F7FF00203036020387047BF
:100E80007C48006810F1010F07D0502080F31188D2
:100E9000BFF34F8FBFF36F8FFEE7502080F31188B1
:100EA000BFF34F8FBFF36F8FFEE700B583B072487B
:100EB00000687249884207D1502080F31188BFF33F
:100EC0004F8FBFF36F8FFEE76B4800686C49884215
:100ED00007D1502080F31188BFF34F8FBFF36F8F7E
:100EE000FEE7684801780191FF21017001788DF8D3
:100EF00000109DF8001011F05001634A1170072195
:100F0000624A11609DF8001009060AD55F49096818
:100F1000491E5E4A11609DF8001049008DF80010CE
:100F2000F0E75A4909680902584A116057490968A7
:100F300011F4E061554A116001990170544800684C
:100F400050F47000524908605148006850F07040F9
:100F50004F49086000F059F800204649086000F049
:100F60000BFB4C48006850F040404A49086000F0D4
:100F7000F7FA00200EBD502080F31188BFF34F8F89
:100F8000BFF36F8F3B480068401C3A4908603948FE
:100F9000006801280BD140480068000607D05020A7
:100FA00080F31188BFF34F8FBFF36F8FFEE7704759
:100FB00030480068002807D1502080F31188BFF323
:100FC0004F8FBFF36F8FFEE72A480068401E294904
:100FD000086028480068002802D1002080F31188AA
:100FE000704780B5502080F31188BFF34F8FBFF357
:100FF0006F8FFFF7C5FA002803D05FF080502649B5
:101000000860002080F3118801BD244800684FF477
:101010007A71B0FBF1F0401E214908600720214998
:1010200008607047EFF305821000102810D31E4AA5
:101030001268825C1100144A1278C9B2914207D238
:10104000502282F31188BFF34F8FBFF36F8FFEE7FB
:101050000E4A1268154B1B6813F4E0639A4207D2DC
:10106000502282F31188BFF34F8FBFF36F8FFEE7DB
:10107000704700000000002000ED00E071C20F4149
:1010800070C20F4100E400E0944D0120404D01206A
:1010900020ED00E034EF00E004ED00E0040000206B
:1010A00014E000E010E000E0102200080CED00E089
:1010B0001CB5002400F0DFF9DFF808040068002800
:1010C0000ED0DFF8040401900220009000234FF4BA
:1010D0008272DFF8F8130FF20110FFF755F80400E1
:1010E000002C07D1502080F31188BFF34F8FBFF33E
:1010F0006F8FFEE7200016BD2DE9FE4304000D00B2
:1011000016001F00DDF828805FF00009002C07D1D1
:10111000502080F31188BFF34F8FBFF36F8FFEE72E
:10112000DFF8A0030068002825D0009501960294FE
:10113000062D17DAFFF77CFC022809D1002342466E
:101140006946DFF88003006800F0B5FA814612E0D6
:10115000002300226946DFF86C03006800F0ABFA58
:10116000814608E000233A006946DFF8580300682A
:1011700000F07AFB81464846BDE8FE83F8B50400DE
:101180000D00DFF84C030068C068C768381DFFF722
:101190004FFEF86901281BD123002A00B869011904
:1011A000380000F089F8002812D0002000900023B9
:1011B000220000213800FFF79FFF0600002E07D114
:1011C000502080F31188BFF34F8FBFF36F8FFEE77E
:1011D0003800796A8847F1BD38B50400684600F0E8
:1011E00040F805000099280000F003F800F08CF8A2
:1011F000F4E770B582B004000E00FFF735F96846D9
:1012000000F046F805000098002827D1002E08D1EC
:10121000A54206D3FFF730F929002000FFF7AEFF03
:101220001EE0002E07D0AB4800680068002801D1FE
:10123000012600E000263200611BA248006800F091
:101240004DFDFFF719F900280AD15FF08050A2493F
:101250000860BFF34F8FBFF36F8F01E0FFF70CF90A
:1012600073BD01009A4A12681268002A01D1012256
:1012700000E00022D2B20A600A68002A05D1944A2E
:101280001268D2681268100001E000221000704756
:1012900038B50400FFF76FF90500904800688542F3
:1012A00004D200F0A0F80120206001E000202060BE
:1012B0008A480560280032BD2DE9F04104000D0088
:1012C00016001F005FF0000865602461AE420CD379
:1012D000F01BA169884202D30120804611E0211D44
:1012E0007C480068FFF787FD0BE0BE4204D2BD4298
:1012F00002D30120804604E0211D75480068FFF7F5
:101300007AFD4046BDE8F08170B586B0002300222A
:1013100001A96C48006800F01EFB002861D001980C
:101320000028F3D4039804006069002802D0201D2F
:10133000FFF77EFD04A8FFF7ABFF06000198002829
:101340000ED002280CD00BD3042830D02ED3062880
:1013500006D041D3082829D002D3092827D03FE05E
:10136000029B32000298A16909182000FFF7A4FF30
:1013700000281AD02000616A8847E069012814D14A
:101380000020009000230298A1690A180021200083
:10139000FFF7B2FE0500002D07D1502080F3118821
:1013A000BFF34F8FBFF36F8FFEE7AFE7AEE7029853
:1013B000A061A069002807D1502080F31188BFF3F5
:1013C0004F8FBFF36F8FFEE733003200A0698119A2
:1013D0002000FFF771FF99E72000FFF7A8FC95E7D1
:1013E00094E706B070BD2DE9F04182B0384800683E
:1013F0000068002834D036480068C06800680400DF
:1014000033480068C068C0680700381DFFF710FD4A
:101410003800796A8847F8690128E7D1B869001966
:101420000500AC4207D27D603F61391D2848006845
:10143000FFF7E1FCDAE70020009000232200002102
:101440003800FFF759FE8046B8F1000F07D1502051
:1014500080F31188BFF34F8FBFF36F8FFEE7C5E7AF
:101460001B48006806001B480068194908601948B5
:101470000660BDE8F38180B5FFF77DFD1148006887
:1014800000281BD11648FFF798FC1648FFF795FC7B
:1014900013480F49086013480E49086000220C21C8
:1014A0000A2000F0C1F807490860064800680028D3
:1014B00004D00D490348006800F0F8FBFFF778FD01
:1014C00001BD0000884D01208C4D0120F82100084D
:1014D000804D0120844D012004ED00E0904D01205D
:1014E000104D0120244D012000220008EFF3098057
:1014F000BFF36F8F244B1A681EF0100F08BF20ED4A
:10150000108A20E9F04F106008B44FF0500080F3CB
:101510001188BFF34F8FBFF36F8FFFF7C7F84FF0FE
:10152000000080F3118808BC19680868B0E8F04F23
:101530001EF0100F08BFB0EC108A80F30988BFF3CB
:101540006F8F7047104B19680868B0E8F04F80F350
:101550000988BFF36F8F4FF0000080F31188704748
:101560000A480068006880F3088862B661B6BFF375
:101570004F8FBFF36F8F00DFDFF81400016841F475
:101580007001016070470000444D012008ED00E04B
:1015900088ED00E070B504000D002600002E07D194
:1015A000502080F31188BFF34F8FBFF36F8FFEE79A
:1015B000FFF7E1FC3068F16B326C02FB01007060F8
:1015C0000020B0633068B0603068F16B491E326C47
:1015D00002FB0100F0605FF0FF3086F844005FF02E
:1015E000FF3086F84500002D12D13069002817D051
:1015F00016F11000FFF7D8F8002811D05FF08050E6
:10160000DFF8D0160860BFF34F8FBFF36F8F07E08E
:1016100016F11000FFF7D1FB16F12400FFF7CDFB08
:10162000FFF7C6FC012070BD2DE9F84304000D0052
:101630001600002C07D1502080F31188BFF34F8F84
:10164000BFF36F8FFEE7002D02D10020804602E03D
:1016500005FB04F0804618F15000FFF732FB07004D
:10166000002F0AD017F15000814600973300DBB2FB
:101670004A462900200000F003F83800BDE8F28354
:101680002DE9F04104000D0016001F00DDF8188060
:10169000002D02D1C8F8008001E0C8F80060C8F849
:1016A0003C40C8F8405001214046FFF773FF88F8DE
:1016B0004C70BDE8F0812DE9F74304000D001E00D9
:1016C0005FF00008A146B9F1000F07D1502080F368
:1016D0001188BFF34F8FBFF36F8FFEE7002D03D14B
:1016E000D9F84000002801D1012000E00020C0B25C
:1016F000002807D1502080F31188BFF34F8FBFF32C
:101700006F8FFEE7022E03D1D9F83C00012801D1EA
:10171000012000E00020C0B2002807D1502080F353
:101720001188BFF34F8FBFF36F8FFEE7FFF780F98C
:10173000002802D10298002801D1012000E00020F9
:10174000C0B2002807D1502080F31188BFF34F8F1B
:10175000BFF36F8FFEE7FFF70EFCD9F83800D9F81A
:101760003C10884201D3022E28D13200290048467D
:1017700000F0DFF90700D9F8240000280FD019F194
:101780002400FFF711F8002814D05FF08050DFF834
:1017900044150860BFF34F8FBFF36F8F0AE0002F2F
:1017A00008D05FF08050DFF82C150860BFF34F8F32
:1017B000BFF36F8FFFF7FCFB012053E00298002876
:1017C00003D1FFF7F5FB00204CE0B8F1000F04D186
:1017D0006846FFF731F801208046FFF7E9FBFEF786
:1017E00043FEFFF7C8FB99F9440010F1010F02D145
:1017F000002089F8440099F9450010F1010F02D149
:10180000002089F84500FFF7D3FB02A96846FFF7DF
:1018100029F8002820D1484600F037FA002815D0D2
:10182000029919F11000FEF779FF484600F0E6F939
:10183000FEF722FE00288ED15FF08050DFF894146E
:101840000860BFF34F8FBFF36F8F84E7484600F007
:10185000D5F9FEF711FE7EE7484600F0CFF9FEF716
:101860000BFE0020BDE8FE832DE9F84F04000D00BB
:1018700016001F00A246BAF1000F07D1502080F3D6
:101880001188BFF34F8FBFF36F8FFEE7002D03D199
:10189000DAF84000002801D1012000E00020C0B2A9
:1018A000002807D1502080F31188BFF34F8FBFF37A
:1018B0006F8FFEE7022F03D1DAF83C00012801D137
:1018C000012000E00020C0B2002807D1502080F3A2
:1018D0001188BFF34F8FBFF36F8FFEE7FFF7A2FBB7
:1018E000EFF311808146502080F31188BFF34F8FB2
:1018F000BFF36F8FDAF83800DAF83C10884201D372
:10190000022F21D19AF945B03A002900504600F043
:1019100010F94FFA8BFB1BF1010F0ED1DAF82400FE
:1019200000280ED01AF12400FEF73EFF002808D050
:10193000002E06D00120306003E01BF101008AF880
:1019400045000120804601E00020804689F311888F
:101950004046BDE8F28F2DE9F44783B004000D0046
:101960001E000027A146B9F1000F07D1502080F3D7
:101970001188BFF34F8FBFF36F8FFEE7002D03D1A8
:10198000D9F84000002801D1012000E00020C0B2B9
:10199000002807D1502080F31188BFF34F8FBFF389
:1019A0006F8FFEE7FFF744F8002802D10398002864
:1019B00001D1012000E00020C0B2002807D1502052
:1019C00080F31188BFF34F8FBFF36F8FFEE7FFF7F0
:1019D000D2FAD9F838A0BAF1000F41D0D9F80C00EA
:1019E00080462900484600F0F1F8002E1FD1BAF1D8
:1019F0000100C9F83800D9F80000002803D1FFF72A
:101A0000DDF8C9F80400D9F81000002824D019F135
:101A10001000FEF7C9FE00281ED05FF08050DFF8EE
:101A2000B4120860BFF34F8FBFF36F8F14E0C9F893
:101A30000C80D9F8240000280ED019F12400FEF7FC
:101A4000B3FE002808D05FF08050DFF888120860ED
:101A5000BFF34F8FBFF36F8FFFF7AAFA012065E046
:101A60000398002803D1FFF7A3FA00205EE0002FBF
:101A700004D16846FEF7E0FE01200700FFF798FA60
:101A8000FEF7F2FCFFF777FA99F9440010F1010F25
:101A900002D1002089F8440099F9450010F1010FA6
:101AA00002D1002089F84500FFF782FA03A96846B1
:101AB000FEF7D8FE00282DD1484600F0D6F80028C1
:101AC00022D0D9F80000002807D1FFF754FAD9F83E
:101AD0000400FEF7C0FFFFF76BFA039919F1240029
:101AE000FEF71CFE484600F089F8FEF7C5FC00280A
:101AF0007FF46DAF5FF08050DFF8D8110860BFF35E
:101B00004F8FBFF36F8F62E7484600F077F8FEF71C
:101B1000B3FC5CE7484600F071F8FEF7ADFC4846C0
:101B200000F0A3F800283FF452AF002004B0BDE855
:101B3000F0872DE9F04704000D0016000027A06B88
:101B40008046206C002809D12068002838D16068C0
:101B5000FEF7D7FF07000020606031E0002E13D1B0
:101B6000D4F84090D4F808A04A462900504600F026
:101B7000DBF8A068216C0818A060A0686168884242
:101B80001ED32068A0601BE0D4F84090D4F80CA0CD
:101B90004A462900504600F0C7F8E068216C401A18
:101BA000E060E0682168884203D26068216C401AD6
:101BB000E060022E04D1B8F1000F01D0B8F10108A5
:101BC00018F10100A0633800BDE8F087F8B5040003
:101BD0000D00206C002810D0E068216C0818E0602F
:101BE000E0686168884201D32068E060266CE7689D
:101BF00032003900280000F097F8F1BD70B50400FC
:101C0000FFF7B9F994F945506DB2012D0CDB606A0C
:101C1000002809D014F12400FEF7C6FD002801D0E9
:101C2000FEF765FE6D1EEFE75FF0FF3084F84500BC
:101C3000FFF7BEF9FFF79FF994F9446076B2012EE1
:101C40000CDB2069002809D014F11000FEF7ACFD70
:101C5000002801D0FEF74BFE761EEFE75FF0FF3065
:101C600084F84400FFF7A4F970BD38B50400FFF70D
:101C700082F9A06B002802D10120050001E00020BC
:101C80000500FFF795F9280032BD38B50400FFF7CD
:101C900072F9A06BE16B884202D10120050001E0DE
:101CA00000200500FFF784F9280032BD00231A0048
:101CB000082A0ED2084B53F83230002B07D1064BBE
:101CC00043F83210044B13EBC203586001E0521C7E
:101CD000EEE7704704ED00E06C4C0120F8B504001D
:101CE0000D0016002700FFF746F997F9440010F1A0
:101CF000010F02D1002087F8440097F9450010F148
:101D0000010F02D1002087F84500FFF751F9B86BA9
:101D1000002805D13200290017F12400FEF71EFD2E
:101D20003800FFF76BFFF1BD62B38B0708D0521E7E
:101D300011F8013B00F8013B00F024808B07F6D13D
:101D4000830740F0208000BF103A07D330B4B1E8D9
:101D50003810103AA0E83810F9D230BC530724BF2D
:101D6000B1E80810A0E8081044BF51F8043B40F85F
:101D7000043BD20724BF31F8022B20F8022B44BFCA
:101D80000B7803707047083A07D3B1E80810083A97
:101D900040F8043B40F804CBF7D25307E4E70000D7
:101DA00080B55248006850F47000504908605048AF
:101DB000006850F001004E49086000204D4908605D
:101DC0004B4800684C490840494908604B484C4919
:101DD00008604748006830F48020454908600020CA
:101DE0004849086000F005F85FF000604649086067
:101DF00001BD82B000200190002000903C480068A6
:101E000050F480303A4908603948006810F40030D6
:101E100000900198401C01900098002803D101987F
:101E2000B0F5A06FF0D132480068800302D50120E0
:101E3000009001E0002000900098012802D1334872
:101E40002F4908603248006850F0805030490860DF
:101E50003048006850F440402E490860254800682A
:101E6000244908602348006850F400402149086074
:101E70002048006850F4A0501E4908601C480068C3
:101E800050F080701A490860194800688001FBD53D
:101E90002048006850F480301E4908601E480068E1
:101EA000C003FBD51B48006850F400301949086096
:101EB000194800688003FBD540F205701749086097
:101EC0000C480068800880000A49086009480068DA
:101ED00050F00200074908600648006810F00C0046
:101EE0000828F9D102B070470000000088ED00E03A
:101EF0000038024008380240FFFFF6FE1030002490
:101F0000043802400C38024008ED00E0085A40074F
:101F1000403802400070004004700040003C024025
:101F2000F0B400220023002400252A00102A4AD2FF
:101F3000012595402B000D681D402C009C4240D18E
:101F4000056803261700FFB27F00BE40B543056059
:101F500005680E791700FFB27F00BE40354305606B
:101F60000D79012D02D00D79022D1AD18568032635
:101F70001700FFB27F00BE40B543856085684E798B
:101F80001700FFB27F00BE403543856045680126DB
:101F90009640B543456045688E799640B6B2354364
:101FA0004560C56803261700FFB27F00BE40B543F9
:101FB000C560C568CE791700FFB27F00BE403543CB
:101FC000C560521CB2E7F0BC7047426989B24A4012
:101FD0004261704700B583B00121402000F050F805
:101FE00001208DF8040000208DF806004FF4C04059
:101FF000009000208DF8070002208DF8050069464A
:102000001A48FFF78DFF07BD10B504004FF40051CB
:102010001648FFF7DAFF6420FEF7C6F9F6E710B5B9
:1020200004004FF480411148FFF7CFFF6420FEF712
:10203000BBF9F6E700B583B0FFF7CCFF00200190B5
:10204000022000900023822209490A48FEF79CF8EA
:1020500000200190032000900023822206490748B7
:10206000FEF792F8FEF7C7F9FEE7000000180240FD
:10207000E021000809200008E82100081F200008CE
:10208000C9B2002905D0064A12680243044B1A60FF
:1020900004E0034A12688243014B1A607047000053
:1020A0003038024019E050F8041BCB0744BFA9F1B7
:1020B00001035918121F0023042A41F8043BF9D2E6
:1020C0005FEA827C0B4604D54FF0000CA1F800C0FB
:1020D0009B1CD10744BF0021197050F8042B002A23
:1020E000E1D1704710B450F8041B79B1026843681D
:1020F00012180830DC0744BFA9F10104E31852F8B4
:10210000044B43F8044B091FF9D1ECE710BC7047AE
:1021100010B5074979441831064C7C44163404E064
:102120000A68081D511888470146A142F8D110BD20
:102130002C0000004C0000004EF68851CEF2000149
:10214000086840F470000860BFF34F8FBFF36F8FD3
:102150004FF00070E1EE100A7047000049FFFFFFEA
:10216000902D0100082000200000000079FFFFFFF3
:1021700008000000940000000000002000000000A3
:1021800000F00BF8002801D0FFF7C2FF0020C04686
:10219000C046FFF74FFF00F002F80120704700F043
:1021A00001B800000746384600F002F8FBE70000DF
:1021B00080B5C046C046024A11001820ABBEFBE7FE
:1021C000260002000148804701480047A11D000881
:1021D000D5210008C046C046FFF7AEFFFFF7D0FF8D
:1021E0005461736B20310000765461736B320000D0
:1021F00049444C4500000000546D72205376630042
:10220000546D725100000000AAAAAAAA0095BA0A49
:10221000F0E300E0FFF7FEBFFFF7FEBFFFF7FEBFF2
:10222000FFF7FEBFFFF7FEBFFFF78CB9FFF7FEBF5A
:10223000FFF75CB9FEF7D5BEFFF7FEBFFFF7FEBFA5
:10224000FFF7FEBFFFF7FEBFFFF7FEBFFFF7FEBFC2
:10225000FFF7FEBFFFF7FEBFFFF7FEBFFFF7FEBFB2
:10226000FFF7FEBFFFF7FEBFFFF7FEBFFFF7FEBFA2
:10227000FFF7FEBFFFF7FEBFFFF7FEBFFFF7FEBF92
:10228000FFF7FEBFFFF7FEBFFFF7FEBFFFF7FEBF82
:10229000FFF7FEBFFFF7FEBFFFF7FEBFFFF7FEBF72
:1022A000FFF7FEBFFFF7FEBFFFF7FEBFFFF7FEBF62
:1022B000FFF7FEBFFFF7FEBFFFF7FEBFFFF7FEBF52
:1022C000FFF7FEBFFFF7FEBFFFF7FEBFFFF7FEBF42
:1022D000FFF7FEBFFFF7FEBFFFF7FEBFFFF7FEBF32
:1022E000FFF7FEBFFFF7FEBFFFF7FEBFFFF7FEBF22
:1022F000FFF7FEBFFFF7FEBFFFF7FEBFFFF7FEBF12
:10230000FFF7FEBFFFF7FEBFFFF7FEBFFFF7FEBF01
:10231000FFF7FEBFFFF7FEBFFFF7FEBFFFF7FEBFF1
:10232000FFF7FEBFFFF7FEBFFFF7FEBFFFF7FEBFE1
:10233000FFF7FEBFFFF7FEBFFFF7FEBFFFF7FEBFD1
:10234000FFF7FEBFFFF7FEBFFFF7FEBFFFF7FEBFC1
:10235000FFF7FEBFFFF7FEBFFFF7FEBFFFF7FEBFB1
:10236000FFF7FEBFFFF7FEBFFFF7FEBFFFF7FEBFA1
:10237000FFF7FEBFFFF7FEBFFFF7FEBFFFF7FEBF91
:04000005080021D5F9
:00000001FF
